:100000000C942A000C943F000C943F000C943F0089
:100010000C943F000C943F000C943F000C943F0064
:100020000C943F000C943F000C943F000C943F0054
:100030000C943F000C943F000C943F000C943F0044
:100040000C943F000C943F000C943F000C943F0034
:100050000C943F0011241FBECFE5D8E0DEBFCDBF1A
:1000600010E0A0E6B0E0EEE1FEE002C005900D92E7
:10007000AE3AB107D9F70E9496030C940D070C9481
:100080000000411138C0813091F028F08230D9F061
:10009000833029F108952AB381E090E002C0880FEF
:1000A000991F6A95E2F7809582238ABB089527B34A
:1000B00081E090E002C0880F991F6A95E2F7809571
:1000C000822387BB089524B381E090E002C0880FAB
:1000D000991F6A95E2F78095822384BB089521B326
:1000E00081E090E002C0880F991F6A95E2F7809541
:1000F000822381BB0895413099F5813089F028F041
:100100008230C9F0833011F108952AB381E090E084
:1001100002C0880F991F6A95E2F7822B8ABB089567
:1001200027B381E090E002C0880F991F6A95E2F73B
:10013000822B87BB089524B381E090E002C0880F32
:10014000991F6A95E2F7822B84BB089521B381E061
:1001500090E002C0880F991F6A95E2F7822B81BB5D
:100160000895411138C0813091F028F08230D9F0E3
:10017000833029F108952BB381E090E002C0880F0D
:10018000991F6A95E2F7809582238BBB089528B367
:1001900081E090E002C0880F991F6A95E2F7809590
:1001A000822388BB089525B381E090E002C0880FC8
:1001B000991F6A95E2F78095822385BB089522B343
:1001C00081E090E002C0880F991F6A95E2F7809560
:1001D000822382BB0895413099F5813089F028F05F
:1001E0008230C9F0833011F108952BB381E090E0A3
:1001F00002C0880F991F6A95E2F7822B8BBB089586
:1002000028B381E090E002C0880F991F6A95E2F759
:10021000822B88BB089525B381E090E002C0880F4F
:10022000991F6A95E2F7822B85BB089522B381E07E
:1002300090E002C0880F991F6A95E2F7822B82BB7B
:100240000895813089F028F08230C9F0833011F1AF
:10025000089589B390E002C0959587956A95E2F775
:100260008170FA018083089586B390E002C095956D
:1002700087956A95E2F78170FA018083089583B3C8
:1002800090E002C0959587956A95E2F78170FA0132
:100290008083089580B390E002C0959587956A9514
:1002A000E2F78170FA018083089541E061E083E024
:1002B0000E94410041E062E083E00E94410041E091
:1002C00063E083E00E94410041E064E083E00E943B
:1002D000410041E061E083E00E94B10041E062E062
:1002E00083E00E94B10041E063E083E00E94B1003E
:1002F00041E064E083E00E94B10040E061E082E020
:100300000E94410040E062E082E00E94410040E043
:1003100063E082E00E94410040E064E082E00E94ED
:10032000410041E061E082E00E94B10041E062E012
:1003300082E00E94B10041E063E082E00E94B100EF
:1003400041E064E082E00E94B1000895CF92DF9224
:10035000EF92FF920F931F93CF93DF931F92CDB72E
:10036000DEB700E042C0C02ED12CF601EC58FF4FA2
:1003700040E0608183E00E94B10010E02BC0E12EDC
:10038000F12CF701E059FF4FAE014F5F5F4F6081E5
:1003900082E00E942101898181111BC0C701880F61
:1003A000991F880F991F805A9F4FFC01EC0DFD1D6E
:1003B00010810AC0AE014F5F5F4FF701E059FF4F58
:1003C000608182E00E9421019981992399F3812F14
:1003D00010C01F5F143098F2F601EC58FF4F41E057
:1003E000608183E00E94B1000F5F043008F4BBCF4E
:1003F0008FEF0F90DF91CF911F910F91FF90EF90B2
:10040000DF90CF900895CF93C82F40E061E081E066
:100410000E94B100000041E062E081E00E94B10072
:100420000000C4FB442740F963E081E00E94B10072
:10043000C5FB442740F964E081E00E94B100C6FB9F
:10044000442740F965E081E00E94B1004C2F441F31
:100450004427441F66E081E00E94B10089EF90E0EC
:100460000197F1F700C0000040E062E081E00E94E7
:10047000B100000041E062E081E00E94B1000000B4
:100480004C2F417063E081E00E94B100C1FB442722
:1004900040F964E081E00E94B100C2FB442740F9CA
:1004A00065E081E00E94B100C3FB442740F966E0AB
:1004B00081E00E94B10089EF90E00197F1F700C060
:1004C000000040E062E081E00E94B1000000CF91B6
:1004D000089541E061E081E00E94410041E062E076
:1004E00081E00E94410087E893E10197F1F700C0A5
:1004F000000041E063E081E00E94410041E064E0EF
:1005000081E00E94410041E065E081E00E944100FD
:1005100041E066E081E00E94410087E893E10197B5
:10052000F1F700C0000083E30E94030282E30E940F
:10053000030288E20E9403028CE00E94030281E031
:100540000E9403020895CF93C82F41E061E081E04B
:100550000E94B100000041E062E081E00E94B10031
:100560000000C4FB442740F963E081E00E94B10031
:10057000C5FB442740F964E081E00E94B100C6FB5E
:10058000442740F965E081E00E94B1004C2F441FF0
:100590004427441F66E081E00E94B10089EF90E0AB
:1005A0000197F1F700C0000040E062E081E00E94A6
:1005B000B100000041E062E081E00E94B100000073
:1005C0004C2F417063E081E00E94B100C1FB4427E1
:1005D00040F964E081E00E94B100C2FB442740F989
:1005E00065E081E00E94B100C3FB442740F966E06A
:1005F00081E00E94B10089EF90E00197F1F700C01F
:10060000000040E062E081E00E94B1000000CF9174
:1006100008950F931F93CF938C01C0E003C00E94F5
:10062000A302CF5FF801EC0FF11D80818111F7CF9C
:10063000CF911F910F910895CF93DF93CDB7DEB780
:1006400060970FB6F894DEBF0FBECDBF4AE050E012
:10065000BE016F5F7F4F0E94CD06CE0101960E94C2
:10066000090360960FB6F894DEBF0FBECDBFDF91D1
:10067000CF910895882329F0813021F490E4960FDA
:1006800001C0962F892F80680E9403020895CF939E
:10069000DF93EC01862F642F0E943A03CE010E9463
:1006A0000903DF91CF91089581E00E94030208952C
:1006B0008F929F92AF92BF92CF92DF92EF92FF9272
:1006C000CF93DF934B015C010E9478056B017C01A5
:1006D000072E000C880B990B0E94B0059B01AC0102
:1006E000C501B4010E94940420E030E04AE754E4DC
:1006F0000E9460060E9478054B015C01EB01C60177
:100700000E941C031C161D0634F48EE20E94A302F4
:10071000C4010E941C03DF91CF91FF90EF90DF9006
:10072000CF90BF90AF909F908F9008950E946902E4
:100730000E9455010E94540344E060E088E790E085
:100740000E94470343E061E080E890E00E94470395
:100750002FE784E89EE1215080409040E1F700C0FF
:1007600000000E945403812C912C540100E010E001
:10077000D0E0712CE12C0E94A601C82F80ED8C0FD7
:100780008A3008F043C08C2F0E94A302E11021C0E0
:1007900020E030E040E251E4602F712F8D2F972D43
:1007A0000E9460062B013C016C2F70E060537109C0
:1007B000072E000C880B990B0E94B0059B01AC0121
:1007C000C301B2010E949504062F172FD82F792E4E
:1007D000D2CF20E030E040E251E4C501B4010E94F4
:1007E00060064B015C016C2F70E060537109072EAD
:1007F000000C880B990B0E94B0059B01AC01C50150
:10080000B4010E9495044B015C01B5CFCB3231F0AD
:10081000CD3221F0CA3211F0CF3229F48C2F0E9450
:10082000A302EC2EA8CFCD3309F070C08C2F0E940C
:10083000A3022BE2E21669F02E1520F08AE2E816F8
:1008400011F14BC09DE2E91689F02FE2E21641F169
:1008500044C0A5019401602F712F8D2F972D0E9408
:100860009504062F172FD82F792E41C0A50194018A
:10087000602F712F8D2F972D0E949404062F172F14
:10088000D82F792E34C0A5019401602F712F8D2FA0
:10089000972D0E946006062F172FD82F792E27C07C
:1008A00020E030E0A901C501B4010E9401058823C0
:1008B00069F0A5019401602F712F8D2F972D0E9453
:1008C0000605062F172FD82F792E11C00E9454032A
:1008D0008BE890E00E9409034ECF0E9454038CE9FC
:1008E00090E00E9409030D2D1C2DDF2D732C602F2D
:1008F000712F8D2F972D0E945803D02EC12EFD2EC3
:10090000372C812C912C5401E12C35CFC33409F0C4
:1009100032CF0E945403812C912C540100E010E04E
:10092000D0E0712CE12C27CF5058BB27AA270E947A
:10093000AC040C9426060E94180638F00E941F068C
:1009400020F039F49F3F19F426F40C9415060EF4A8
:10095000E095E7FB0C940F06E92F0E94370658F349
:10096000BA17620773078407950720F079F4A6F594
:100970000C9459060EF4E0950B2EBA2FA02D0B0106
:10098000B90190010C01CA01A0011124FF27591BD4
:1009900099F0593F50F4503E68F11A16F040A22FDA
:1009A000232F342F4427585FF3CF4695379527954B
:1009B000A795F0405395C9F77EF41F16BA0B620B4A
:1009C000730B840BBAF09150A1F0FF0FBB1F661F91
:1009D000771F881FC2F70EC0BA0F621F731F841FD4
:1009E00048F4879577956795B795F7959E3F08F0FA
:1009F000B0CF9395880F08F09927EE0F97958795BC
:100A000008950E94EB0508F481E008950E941A05FC
:100A10000C9426060E941F0658F00E94180640F00B
:100A200029F45F3F29F00C940F0651110C945A06DB
:100A30000C9415060E94370668F39923B1F35523E9
:100A400091F3951B550BBB27AA27621773078407E1
:100A500038F09F5F5F4F220F331F441FAA1FA9F377
:100A600035D00E2E3AF0E0E832D091505040E69565
:100A7000001CCAF72BD0FE2F29D0660F771F881FC6
:100A8000BB1F261737074807AB07B0E809F0BB0BB9
:100A9000802DBF01FF2793585F4F3AF09E3F5105CD
:100AA00078F00C940F060C945A065F3FE4F3983EDE
:100AB000D4F3869577956795B795F7959F5FC9F7B6
:100AC000880F911D9695879597F90895E1E0660F37
:100AD000771F881FBB1F621773078407BA0720F0B0
:100AE000621B730B840BBA0BEE1F88F7E095089519
:100AF0000E947F056894B1110C945A0608950E94D3
:100B00003F0688F09F5798F0B92F9927B751B0F05A
:100B1000E1F0660F771F881F991F1AF0BA95C9F781
:100B200014C0B13091F00E945906B1E008950C94C0
:100B30005906672F782F8827B85F39F0B93FCCF373
:100B4000869577956795B395D9F73EF490958095FE
:100B5000709561957F4F8F4F9F4F0895E89409C01E
:100B600097FB3EF490958095709561957F4F8F4FE0
:100B70009F4F9923A9F0F92F96E9BB279395F695F6
:100B8000879577956795B795F111F8CFFAF4BB0F74
:100B900011F460FF1BC06F5F7F4F8F4F9F4F16C0D8
:100BA000882311F096E911C0772321F09EE8872F62
:100BB000762F05C0662371F096E8862F70E060E01E
:100BC0002AF09A95660F771F881FDAF7880F969597
:100BD000879597F90895990F0008550FAA0BE0E83B
:100BE000FEEF16161706E807F907C0F012161306EF
:100BF000E407F50798F0621B730B840B950B39F42F
:100C00000A2661F0232B242B252B21F408950A2694
:100C100009F4A140A6958FEF811D811D089597F9D4
:100C20009F6780E870E060E008959FEF80EC089592
:100C300000240A94161617061806090608950024BB
:100C40000A9412161306140605060895092E039435
:100C5000000C11F4882352F0BB0F40F4BF2B11F4A9
:100C600060FF04C06F5F7F4F8F4F9F4F089557FD08
:100C70009058440F551F59F05F3F71F04795880F0A
:100C800097FB991F61F09F3F79F0879508951216A1
:100C900013061406551FF2CF4695F1DF08C016164D
:100CA00017061806991FF1CF8695710561050894FE
:100CB0000895E894BB2766277727CB0197F9089515
:100CC0000E9473060C9426060E94180638F00E94B3
:100CD0001F0620F0952311F00C940F060C941506B6
:100CE00011240C945A060E94370670F3959FC1F3A5
:100CF000950F50E0551F629FF001729FBB27F00DCA
:100D0000B11D639FAA27F00DB11DAA1F649F66271E
:100D1000B00DA11D661F829F2227B00DA11D621F6D
:100D2000739FB00DA11D621F839FA00D611D221F27
:100D3000749F3327A00D611D231F849F600D211D0B
:100D4000822F762F6A2F11249F5750409AF0F1F08E
:100D500088234AF0EE0FFF1FBB1F661F771F881FF7
:100D600091505040A9F79E3F510580F00C940F061A
:100D70000C945A065F3FE4F3983ED4F3869577953A
:100D80006795B795F795E7959F5FC1F7FE2B880F9D
:100D9000911D9695879597F908954532510520F450
:100DA000423010F00C94D806FB011082CB0108955C
:100DB000BB274A3031F4992322F4BDE29095819506
:100DC0009F4F0C94E406BB27FB015527AA27880FE9
:100DD000991FAA1FA41710F0A41B83955051B9F7AF
:100DE000A05DAA3308F0A95DA193009779F7B1112E
:100DF000B1931192CB010C94FD06DC01FC01672F2D
:100E000071917723E1F7329704C07C916D937083E1
:0E0E10006291AE17BF07C8F30895F894FFCFA4
:100E1E003738392F3435362A3132332D43303D2B86
:100E2E00010203040102030457454C434F4D450094
:100E3E0043414C43554C41544F52004469766973BB
:100E4E00696F6E204279205A65726F00496E766125
:0E0E5E006C6964204F70657261746F722100C0
:00000001FF
