:100000000C942A000C943F000C943F000C943F0089
:100010000C943F000C943F000C943F000C943F0064
:100020000C943F000C943F000C943F000C943F0054
:100030000C943F000C943F000C943F000C943F0044
:100040000C943F000C943F000C943F000C943F0034
:100050000C943F0011241FBECFE5D8E0DEBFCDBF1A
:1000600010E0A0E6B0E0E8E8FEE002C005900D92E6
:10007000A439B107D9F70E94FE030C9442070C94EF
:100080000000843008F07EC0683008F07BC0423049
:1000900008F078C0813019F130F08230E1F183301E
:1000A00009F455C00895442319F0413069F00895CA
:1000B0002AB381E090E002C0880F991F6A95E2F7A9
:1000C000809582238ABB08952AB381E090E002C024
:1000D000880F991F6A95E2F7822B8ABB0895442303
:1000E00019F0413069F0089527B381E090E002C033
:1000F000880F991F6A95E2F78095822387BB089540
:1001000027B381E090E002C0880F991F6A95E2F75B
:10011000822B87BB0895442319F0413069F008957C
:1001200024B381E090E002C0880F991F6A95E2F73E
:100130008095822384BB089524B381E090E002C0BF
:10014000880F991F6A95E2F7822B84BB0895442398
:1001500019F0413069F0089521B381E090E002C0C8
:10016000880F991F6A95E2F78095822381BB0895D5
:1001700021B381E090E002C0880F991F6A95E2F7F1
:10018000822B81BB0895843008F07EC0683008F06F
:100190007BC0423008F078C0813019F130F08230F5
:1001A000E1F1833009F455C00895442319F041303A
:1001B00069F008952BB381E090E002C0880F991F89
:1001C0006A95E2F7809582238BBB08952BB381E07B
:1001D00090E002C0880F991F6A95E2F7822B8BBBD3
:1001E0000895442319F0413069F0089528B381E05F
:1001F00090E002C0880F991F6A95E2F780958223EC
:1002000088BB089528B381E090E002C0880F991F51
:100210006A95E2F7822B88BB0895442319F0413098
:1002200069F0089525B381E090E002C0880F991F1E
:100230006A95E2F78095822385BB089525B381E016
:1002400090E002C0880F991F6A95E2F7822B85BB68
:100250000895442319F0413069F0089522B381E0F4
:1002600090E002C0880F991F6A95E2F7809582237B
:1002700082BB089522B381E090E002C0880F991FED
:100280006A95E2F7822B82BB08958430C0F568300E
:10029000B0F54115510599F1813089F028F082308F
:1002A000C9F0833011F1089589B390E002C09595AB
:1002B00087956A95E2F78170FA018083089586B385
:1002C00090E002C0959587956A95E2F78170FA01F2
:1002D0008083089583B390E002C0959587956A95D1
:1002E000E2F78170FA018083089580B390E002C044
:1002F000959587956A95E2F78170FA018083089554
:100300008430A8F5683098F5813089F028F0823083
:10031000C9F0833011F108952BB381E090E002C061
:10032000880F991F6A95E2F7822B8BBB089528B33B
:1003300081E090E002C0880F991F6A95E2F7822B56
:1003400088BB089525B381E090E002C0880F991F13
:100350006A95E2F7822B85BB089522B381E090E095
:1003600002C0880F991F6A95E2F7822B82BB08951D
:1003700040E061E082E00E94410040E062E082E013
:100380000E94410040E063E082E00E94410040E0C2
:1003900064E082E00E94410061E082E00E9480010E
:1003A00062E082E00E94800163E082E00E948001BE
:1003B00064E082E00E94800141E061E083E00E940D
:1003C000410041E062E083E00E94410041E063E0DF
:1003D00083E00E94410041E064E083E00E9441002C
:1003E00041E061E083E00E94C30041E062E083E01D
:1003F0000E94C30041E063E083E00E94C30041E04B
:1004000064E083E00E94C30008956F927F928F9210
:100410009F92AF92BF92CF92DF92EF92FF920F9393
:100420001F93CF93DF93CDB7DEB7A1970FB6F894A4
:10043000DEBF0FBECDBF009709F47EC05C0183E034
:100440008D8F8E8F8F8F88A331E0398F92E09A8FB6
:100450008B8F24E02C8F9D8B9E8B9F8B988F398B5D
:100460009A8B8B8B2C8B80E1E0E6F0E0DE0111961D
:1004700001900D928A95E1F78FEFF501808300E0FE
:1004800058C0C02ED12CE9E1F0E0EC0FFD1FEC0DBF
:10049000FD1D8080EDE1F0E0EC0FFD1FEC0DFD1D7A
:1004A000908040E0682D892D0E94C30010E037C085
:1004B000E12EF12CE1E1F0E0EC0FFD1FEE0DFF1D50
:1004C0007080E5E1F0E0EC0FFD1FEE0DFF1D608098
:1004D000AE014F5D5F4F672D862D0E94450189A1BA
:1004E00081111CC007C0AE014F5D5F4F672D862D87
:1004F0000E94450189A18823B1F3EE0CFF1CEE0C8C
:10050000FF1C81E090E08C0F9D1FE80EF91EF701A3
:10051000EC0DFD1D8081F501808303C01F5F143049
:1005200038F241E0682D892D0E94C300143020F07C
:100530000F5F043008F4A5CFA1960FB6F894DEBF84
:100540000FBECDBFDF91CF911F910F91FF90EF9024
:10055000DF90CF90BF90AF909F908F907F906F90E3
:100560000895CF93C82F80FD06C040E064E081E08D
:100570000E94C30005C041E064E081E00E94C30026
:10058000C1FD06C040E065E081E00E94C30005C0F7
:1005900041E065E081E00E94C300C2FD06C040E08A
:1005A00066E081E00E94C30005C041E066E081E0B2
:1005B0000E94C300C3FD06C040E067E081E00E94E6
:1005C000C30005C041E067E081E00E94C300CF9115
:1005D000089541E063E081E00E94C3008FE99FE05D
:1005E0000197F1F700C0000040E063E081E00E9465
:1005F000C3000895CF93C82F41E061E081E00E94DD
:10060000C30040E062E081E00E94C3008C2F82952D
:100610008F700E94B1020E94E9028C2F0E94B102E9
:100620000E94E902CF910895CF93C82F40E061E086
:1006300081E00E94C30040E062E081E00E94C300CC
:100640008C2F82958F700E94B1020E94E9028C2F3C
:100650000E94B1020E94E902CF91089541E061E059
:1006600081E00E94410041E062E081E00E9441009F
:1006700041E063E081E00E94410041E064E081E00C
:100680000E94410041E065E081E00E94410041E0BC
:1006900066E081E00E94410041E067E081E00E9465
:1006A00041002FE785EB91E0215080409040E1F739
:1006B00000C0000040E061E081E00E94C30040E033
:1006C00062E081E00E94C30082E00E94B1020E94C9
:1006D000E90288E20E94140320EF2A95F1F78FE0E7
:1006E0000E94140380EF8A95F1F781E00E941403C1
:1006F0008FE39FE10197F1F700C0000086E00E94C0
:10070000140308950F931F93CF93009729F40CC0FF
:100710000E94FA02CF5F02C08C01C0E0F801EC0F2A
:10072000F11D80818111F4CFCF911F910F91089518
:1007300081E00E9414038FE39FE10197F1F700C06D
:1007400000000895CF92DF92EF92FF920F931F93D4
:100750008B019C01672B682B692B49F580E30E9474
:10076000FA0245C0DC01CB01880F991FAA1FBB1FED
:100770006C017D01CC0CDD1CEE1CFF1CCC0CDD1CC7
:10078000EE1CFF1CC80ED91EEA1EFB1EC901B801D3
:100790002AE030E040E050E00E9420076C0D7D1D13
:1007A0008E1D9F1D022F132F242F352F04C061E0B3
:1007B00070E080E090E0011511052105310591F60A
:1007C0002AE030E040E050E00E942007E22EF32EC5
:1007D000042F152F80E3860F0E94FA026E2D7F2DC5
:1007E000802F912F613071058105910549F71F9187
:1007F0000F91FF90EF90DF90CF900895CF93DF930C
:1008000000D0CDB7DEB70E942E030E94B8010E942F
:100810009803812C912C5401E12CF12C00E010E084
:10082000D12CCE0101960E940502898190ED980F8E
:100830009A3008F043C090E00E948203D11021C09A
:1008400020E030E040E251E46E2D7F2D802F912F8B
:100850000E94B3062B013C01698170E0605371096D
:10086000072E000C880B990B0E9403069B01AC011C
:10087000C301B2010E94EF04E62EF72E082F192FB4
:10088000D0CF20E030E040E251E4C501B4010E9445
:10089000B3064B015C01698170E060537109072E5A
:1008A000000C880B990B0E9403069B01AC01C5014B
:1008B000B4010E94EF044B015C01B3CF8B3231F0E5
:1008C0008D3221F08A3211F08F3229F490E00E94AB
:1008D0008203D980A6CF8D3309F072C090E00E94C8
:1008E00082038BE2D81669F08D1520F08AE2D816C3
:1008F00011F14BC08DE2D81689F08FE2D81641F184
:1009000044C0A50194016E2D7F2D802F912F0E9450
:10091000EF04E62EF72E082F192F41C0A5019401F0
:100920006E2D7F2D802F912F0E94EE04E62EF72E44
:10093000082F192F34C0A50194016E2D7F2D802F13
:10094000912F0E94B306E62EF72E082F192F27C0ED
:1009500020E030E0A901C501B4010E945B058823B5
:1009600069F0A50194016E2D7F2D802F912F0E949B
:100970006005E62EF72E082F192F11C00E9498034C
:1009800080E790E00E9482034CCF0E94980381E8A8
:1009900090E00E948203E32CFC2C022D1A816E2D24
:1009A0007F2D802F912F0E94D2050E94A2033E2C02
:1009B000CF2C202E1A83812C912C5401D12C31CF95
:1009C000833409F02ECF0E949803812C912C54017E
:1009D000E12CF12C00E010E0D12C23CF5058BB27A4
:1009E000AA270E9406050C9479060E946B0638F02F
:1009F0000E94720620F039F49F3F19F426F40C94FB
:100A000068060EF4E095E7FB0C946206E92F0E945D
:100A10008A0658F3BA17620773078407950720F010
:100A200079F4A6F50C94AC060EF4E0950B2EBA2FD3
:100A3000A02D0B01B90190010C01CA01A0011124E4
:100A4000FF27591B99F0593F50F4503E68F11A1690
:100A5000F040A22F232F342F4427585FF3CF469521
:100A600037952795A795F0405395C9F77EF41F1643
:100A7000BA0B620B730B840BBAF09150A1F0FF0F0D
:100A8000BB1F661F771F881FC2F70EC0BA0F621FF9
:100A9000731F841F48F4879577956795B795F795E9
:100AA0009E3F08F0B0CF9395880F08F09927EE0F7E
:100AB0009795879508950E943E0608F481E0089571
:100AC0000E9474050C9479060E94720658F00E94E8
:100AD0006B0640F029F45F3F29F00C946206511137
:100AE0000C94AD060C9468060E948A0668F399235C
:100AF000B1F3552391F3951B550BBB27AA2762171A
:100B00007307840738F09F5F5F4F220F331F441F26
:100B1000AA1FA9F335D00E2E3AF0E0E832D091505A
:100B20005040E695001CCAF72BD0FE2F29D0660F47
:100B3000771F881FBB1F261737074807AB07B0E88A
:100B400009F0BB0B802DBF01FF2793585F4F3AF090
:100B50009E3F510578F00C9462060C94AD065F3F01
:100B6000E4F3983ED4F3869577956795B795F79516
:100B70009F5FC9F7880F911D9695879597F90895FE
:100B8000E1E0660F771F881FBB1F6217730784079A
:100B9000BA0720F0621B730B840BBA0BEE1F88F7A9
:100BA000E09508950E94920688F09F5798F0B92F1B
:100BB0009927B751B0F0E1F0660F771F881F991F92
:100BC0001AF0BA95C9F714C0B13091F00E94AC0682
:100BD000B1E008950C94AC06672F782F8827B85F92
:100BE00039F0B93FCCF3869577956795B395D9F7EA
:100BF0003EF490958095709561957F4F8F4F9F4FF4
:100C00000895E89409C097FB3EF4909580957095FF
:100C100061957F4F8F4F9F4F9923A9F0F92F96E948
:100C2000BB279395F695879577956795B795F111BD
:100C3000F8CFFAF4BB0F11F460FF1BC06F5F7F4F5A
:100C40008F4F9F4F16C0882311F096E911C077236C
:100C500021F09EE8872F762F05C0662371F096E875
:100C6000862F70E060E02AF09A95660F771F881F44
:100C7000DAF7880F9695879597F90895990F0008E8
:100C8000550FAA0BE0E8FEEF16161706E807F9075E
:100C9000C0F012161306E407F50798F0621B730BF9
:100CA000840B950B39F40A2661F0232B242B252B7A
:100CB00021F408950A2609F4A140A6958FEF811D1D
:100CC000811D089597F99F6780E870E060E00895BE
:100CD0009FEF80EC089500240A9416161706180654
:100CE0000906089500240A94121613061406050630
:100CF0000895092E0394000C11F4882352F0BB0FC1
:100D000040F4BF2B11F460FF04C06F5F7F4F8F4F23
:100D10009F4F089557FD9058440F551F59F05F3F5E
:100D200071F04795880F97FB991F61F09F3F79F00D
:100D300087950895121613061406551FF2CF46958F
:100D4000F1DF08C0161617061806991FF1CF869511
:100D50007105610508940895E894BB2766277727F5
:100D6000CB0197F908950E94C6060C9479060E945B
:100D70006B0638F00E94720620F0952311F00C9457
:100D800062060C94680611240C94AD060E948A0633
:100D900070F3959FC1F3950F50E0551F629FF001CE
:100DA000729FBB27F00DB11D639FAA27F00DB11DE7
:100DB000AA1F649F6627B00DA11D661F829F222770
:100DC000B00DA11D621F739FB00DA11D621F839FF7
:100DD000A00D611D221F749F3327A00D611D231FCD
:100DE000849F600D211D822F762F6A2F11249F571B
:100DF00050409AF0F1F088234AF0EE0FFF1FBB1F1E
:100E0000661F771F881F91505040A9F79E3F5105DC
:100E100080F00C9462060C94AD065F3FE4F3983EBC
:100E2000D4F3869577956795B795F795E7959F5F86
:100E3000C1F7FE2B880F911D9695879597F9089518
:100E4000A1E21A2EAA1BBB1BFD010DC0AA1FBB1FCE
:100E5000EE1FFF1FA217B307E407F50720F0A21B40
:100E6000B30BE40BF50B661F771F881F991F1A94AD
:100E700069F760957095809590959B01AC01BD01D7
:080E8000CF010895F894FFCFA3
:100E88003738392F3435362A3132332D43303D2B1C
:100E98004469766973696F6E204279205A65726F6A
:100EA80000496E76616C6964204F70657261746F79
:040EB80072210000A3
:00000001FF
