:100000000C942A000C9447000C9447000C94470071
:100010000C945B0C0C9447000C9447000C94470024
:100020000C9447000C9447000C9447000C94470034
:100030000C9447000C9447000C9447000C94470024
:100040000C9447000C9447000C9447000C94470014
:100050000C94470011241FBECFE5D4E0DEBFCDBF16
:1000600010E0A0E6B0E0E4E5F4E202C005900D92F5
:10007000A237B107D9F710E0A2E7B0E001C01D92A6
:10008000AA38B107E1F70E94B4110C9428120C941D
:100090000000EF92FF920F931F937B018C0120E0F1
:1000A00030E040E05FE40E94490388238CF0C801FF
:1000B000B70120E030E040E05FE40E94C1010E940F
:1000C000A9039B01AC01205030404040504806C07D
:1000D000C801B7010E94A9039B01AC01B901CA0183
:1000E0001F910F91FF90EF900895A0E0B0E0EBE733
:1000F000F0E00C94F111DC012B01FA019C9192309B
:1001000008F439C1EB018881823008F433C194309E
:1001100069F4843009F02FC111969C91119789815F
:10012000981709F428C1A0E6B0E025C1843009F48D
:1001300021C18230A9F4923009F01DC19A01AD01AC
:1001400088E0EA010990AE01E90109929E0181501F
:10015000C1F7E201898111969C918923818308C1AD
:10016000923009F407C112962D903C901397EB0141
:100170008A819B811496AD90BD90CD90DC901797AD
:10018000EC80FD800E811F819101281B390BB90184
:1001900037FF04C066277727621B730B6032710537
:1001A0000CF061C0121613066CF537014801062EDB
:1001B00004C096948794779467940A94D2F721E0C8
:1001C00030E040E050E004C0220F331F441F551FB1
:1001D0006A95D2F721503040404050402E213F21B7
:1001E00040235123211531054105510521F021E01E
:1001F00030E040E050E079018A01E628F72808293C
:1002000019293CC0232BD1F1260E371E350146019A
:10021000062E04C096948794779467940A94D2F734
:1002200021E030E040E050E004C0220F331F441FC3
:10023000551F6A95D2F721503040404050402A2146
:100240003B214C215D21211531054105510521F04E
:1002500021E030E040E050E059016A01A628B728CB
:10026000C828D9280BC0821593052CF01C01AA249C
:10027000BB24650103C0EE24FF24870111969C91E5
:10028000D20111968C91981709F445C0992339F041
:10029000A80197012A193B094C095D0906C0A6016E
:1002A00095012E193F09400B510B57FD08C01182D3
:1002B0003382228224833583468357831DC081E0A5
:1002C00081833382228288279927DC01821B930B4A
:1002D000A40BB50B84839583A683B7830DC0220F2F
:1002E000331F441F551F24833583468357838281E0
:1002F000938101979383828324813581468157813D
:10030000DA01C9010197A109B1098F5F9F4FAF4F72
:10031000BF4328F30BC0918333822282EA0CFB1C7B
:100320000C1D1D1DE482F5820683178383E0808304
:10033000248135814681578157FF1AC0C901AA27F8
:1003400097FDA095BA2F81709070A070B0705695EF
:10035000479537952795822B932BA42BB52B848318
:100360009583A683B7838281938101969383828349
:10037000DF0101C0D201CD01CDB7DEB7E2E10C94BF
:100380000D12A0E2B0E0E7ECF1E00C94FD116983FE
:100390007A838B839C832D833E834F835887E9E048
:1003A000EE2EF12CEC0EFD1ECE010196B7010E943F
:1003B000D2048E010F5E1F4FCE010596B8010E9438
:1003C000D2048A8991E089278A8BC701B801AE01DE
:1003D000475E5F4F0E9475000E94FD03A096E6E015
:1003E0000C941912A0E2B0E0E8EFF1E00C94FD11DA
:1003F00069837A838B839C832D833E834F835887C5
:10040000F9E0EF2EF12CEC0EFD1ECE010196B701A6
:100410000E94D2048E010F5E1F4FCE010596B801D7
:100420000E94D204C701B801AE01475E5F4F0E942F
:1004300075000E94FD03A096E6E00C941912A0E25C
:10044000B0E0E5E2F2E00C94F11169837A838B83EA
:100450009C832D833E834F835887CE010196BE0136
:10046000675F7F4F0E94D204CE010596BE016F5E8A
:100470007F4F0E94D2049985923088F0898982301A
:10048000C8F0943019F4823051F404C0843029F457
:10049000923081F480E690E0C6C0923049F420E0CA
:1004A0009A858A89981321E02A87CE010996BBC0D4
:1004B000823049F420E09A858A89981321E02A8BBA
:1004C000CE014196B0C02D843E844F8458886D88FB
:1004D0007E888F88988CEE24FF248701AA24BB2471
:1004E000650140E050E060E070E0E0E0F0E0C10174
:1004F00081709070892BE9F0E60CF71C081D191D1E
:100500009A01AB012A0D3B1D4C1D5D1D80E090E062
:10051000A0E0B0E0E614F7040805190520F481E036
:1005200090E0A0E0B0E0BA01A901480F591F6A1F8E
:100530007B1FAA0CBB1CCC1CDD1C97FE08C081E0F5
:1005400090E0A0E0B0E0A82AB92ACA2ADB2A3196B6
:10055000E032F10549F0660C771C881C991C569412
:10056000479437942794C3CFFA85EA892B893C892D
:100570008B859C85280F391F2E5F3F4F17C0CA01FE
:1005800081709070892B61F016950795F794E79428
:1005900080E090E0A0E0B0E8E82AF92A0A2B1B2BC3
:1005A00076956795579547952F5F3F4F77FDE7CF36
:1005B0000CC0440F551F661F771F17FD4160EE0CDE
:1005C000FF1C001F111F21503040403090E05907A0
:1005D00090E0690790E4790760F32B8F3C8FDB0193
:1005E000CA018F779070A070B07080349105A1051A
:1005F000B10561F447FD0AC0E114F10401051105DC
:1006000029F0405C5F4F6F4F7F4F40781A8EFE1786
:1006100011F081E08A8F4D8F5E8F6F8F78A383E01A
:10062000898FCE0149960E94FD03A096E2E10C94C9
:100630000D12A8E1B0E0EFE1F3E00C94FD11698345
:100640007A838B839C832D833E834F83588789E0F5
:10065000E82EF12CEC0EFD1ECE010196B7010E9492
:10066000D2048E010F5E1F4FCE010596B8010E9485
:10067000D2048985823040F08989823028F0C70110
:10068000B8010E944A0501C08FEF6896E6E00C941D
:100690001912A8E1B0E0EFE4F3E00C94FD116983D6
:1006A0007A838B839C832D833E834F83588789E095
:1006B000E82EF12CEC0EFD1ECE010196B7010E9432
:1006C000D2048E010F5E1F4FCE010596B8010E9425
:1006D000D2048985823040F08989823028F0C701B0
:1006E000B8010E944A0501C08FEF6896E6E00C94BD
:1006F0001912A8E1B0E0EFE7F3E00C94FD11698373
:100700007A838B839C832D833E834F83588789E034
:10071000E82EF12CEC0EFD1ECE010196B7010E94D1
:10072000D2048E010F5E1F4FCE010596B8010E94C4
:10073000D2048985823040F08989823028F0C7014F
:10074000B8010E944A0501C081E06896E6E00C9479
:100750001912ACE0B0E0EFEAF3E00C940112698307
:100760007A838B839C83CE010196BE016B5F7F4FA2
:100770000E94D2048D81823061F1823050F1843048
:1007800021F48E81882351F12EC02F81388537FDC9
:1007900020C06E812F3131051CF06623F9F023C093
:1007A0008EE190E0821B930B29853A854B855C8511
:1007B00004C056954795379527958A95D2F76623B5
:1007C000B1F050954095309521953F4F4F4F5F4F79
:1007D0000EC020E030E040E050E009C02FEF3FEFD6
:1007E0004FEF5FE704C020E030E040E050E8B9019F
:1007F000CA012C96E2E00C941D12DF92EF92FF9258
:100800000F931F93FC01E480F58006811781D1804E
:100810008081823048F480E090E0A0E1B0E0E82AF6
:10082000F92A0A2B1B2BA5C0843009F49FC0823003
:1008300021F4EE24FF24870105C0E114F104010531
:10084000110519F4E0E0F0E096C0628173819FEF3A
:10085000623879070CF05BC022E83FEF261B370BAC
:100860002A3131052CF020E030E040E050E02AC091
:10087000B801A701022E04C0769567955795479554
:100880000A94D2F781E090E0A0E0B0E004C0880FC5
:10089000991FAA1FBB1F2A95D2F70197A109B10979
:1008A0008E219F21A023B1230097A105B10521F03E
:1008B00081E090E0A0E0B0E09A01AB01282B392B59
:1008C0004A2B5B2BDA01C9018F779070A070B07052
:1008D00080349105A105B10539F427FF09C0205CDA
:1008E0003F4F4F4F5F4F04C0215C3F4F4F4F5F4F13
:1008F000E0E0F0E02030A0E03A07A0E04A07A0E402
:100900005A0710F0E1E0F0E079018A0127C0603871
:10091000710564F5FB01E158FF4FD801C7018F77DE
:100920009070A070B07080349105A105B10539F4C4
:10093000E7FE0DC080E490E0A0E0B0E004C08FE3EB
:1009400090E0A0E0B0E0E80EF91E0A1F1B1F17FFA1
:1009500005C016950795F794E794319687E01695AC
:100960000795F794E7948A95D1F705C0EE24FF2404
:100970008701EFEFF0E06E2F679566276795902F60
:100980009F77D794DD24D7948E2F8695492F462BB9
:10099000582F5D29B701CA011F910F91FF90EF9069
:1009A000DF900895FC01DB01408151812281622F9B
:1009B0006F7770E0221F2227221F9381892F880FD3
:1009C000822B282F30E0991F9927991F11969C930D
:1009D000119721153105A9F54115510561057105DD
:1009E00011F482E037C082E89FEF13969C938E93B8
:1009F00012979A01AB0167E0220F331F441F551F66
:100A00006A95D1F783E08C930DC0220F331F441FEA
:100A1000551F12968D919C911397019713969C9355
:100A20008E931297203080E0380780E0480780E4FA
:100A3000580758F314962D933D934D935C93179755
:100A400008952F3F310579F4411551056105710570
:100A500019F484E08C93089564FF03C081E08C93C3
:100A600012C01C9210C02F57304013963C932E9307
:100A7000129783E08C9387E0440F551F661F771F02
:100A80008A95D1F7706414964D935D936D937C9322
:100A9000179708951F93DC01FB019C91923008F495
:100AA00047C08081823008F443C0943051F41196DD
:100AB0001C91843099F58181682F70E0611B710968
:100AC0003FC0843021F0923031F48230B9F181811D
:100AD000882389F12DC011961C9111978230F1F075
:100AE00081811817D9F412962D913C911397828128
:100AF00093818217930794F028173907BCF0149656
:100B00008D919D910D90BC91A02D248135814681C0
:100B10005781281739074A075B0718F4112341F05A
:100B20000AC082179307A407B50740F4112319F0F0
:100B300061E070E005C06FEF7FEF02C060E070E041
:100B4000CB011F910895DF93CF93CDB7DEB72D97DB
:100B50000FB6F894DEBF0FBECDBF89836A834B8387
:100B60008981843008F009C18A81883008F005C184
:100B70008B81823008F001C18981282F30E03D87C8
:100B80002C878C859D858130910509F44FC02C857B
:100B90003D85223031052CF48C859D85009771F0C0
:100BA000ECC02C853D852230310509F477C08C8559
:100BB0009D858330910509F4A9C0DFC08B81282F62
:100BC00030E03B872A878A859B85009731F02A850C
:100BD0003B8521303105B1F0D0C0AAE3B0E0EAE3B3
:100BE000F0E08081482F8A81282F30E081E090E07A
:100BF000022E02C0880F991F0A94E2F78095842381
:100C00008C93BBC0AAE3B0E0EAE3F0E08081482F18
:100C10008A81282F30E081E090E0022E02C0880F08
:100C2000991F0A94E2F7842B8C93A7C08B81282FFD
:100C300030E03987288788859985009731F02885A5
:100C4000398521303105B1F098C0A7E3B0E0E7E382
:100C5000F0E08081482F8A81282F30E081E090E009
:100C6000022E02C0880F991F0A94E2F78095842310
:100C70008C9383C0A7E3B0E0E7E3F0E08081482FE6
:100C80008A81282F30E081E090E0022E02C0880F98
:100C9000991F0A94E2F7842B8C936FC08B81282FC5
:100CA00030E03F832E838E819F81009731F02E812B
:100CB0003F8121303105B1F060C0A4E3B0E0E4E34E
:100CC000F0E08081482F8A81282F30E081E090E099
:100CD000022E02C0880F991F0A94E2F780958423A0
:100CE0008C934BC0A4E3B0E0E4E3F0E08081482FB4
:100CF0008A81282F30E081E090E0022E02C0880F28
:100D0000991F0A94E2F7842B8C9337C08B81282F8C
:100D100030E03D832C838C819D81009731F02C81C4
:100D20003D8121303105B1F028C0A1E3B0E0E1E31D
:100D3000F0E08081482F8A81282F30E081E090E028
:100D4000022E02C0880F991F0A94E2F7809584232F
:100D50008C9313C0A1E3B0E0E1E3F0E08081482F81
:100D60008A81282F30E081E090E0022E02C0880FB7
:100D7000991F0A94E2F7842B8C932D960FB6F89462
:100D8000DEBF0FBECDBFCF91DF910895DF93CF932C
:100D9000CDB7DEB72D970FB6F894DEBF0FBECDBF2F
:100DA00089836A834B838981843008F009C18A81F1
:100DB000883008F005C18B81823008F001C189813B
:100DC000282F30E03D872C878C859D8581309105CB
:100DD00009F44FC02C853D85223031052CF48C85DB
:100DE0009D85009771F0ECC02C853D852230310542
:100DF00009F477C08C859D858330910509F4A9C0DD
:100E0000DFC08B81282F30E03B872A878A859B852E
:100E1000009731F02A853B8521303105B1F0D0C0F3
:100E2000ABE3B0E0EBE3F0E08081482F8A81282F2C
:100E300030E081E090E0022E02C0880F991F0A94F2
:100E4000E2F7809584238C93BBC0ABE3B0E0EBE387
:100E5000F0E08081482F8A81282F30E081E090E007
:100E6000022E02C0880F991F0A94E2F7842B8C93FC
:100E7000A7C08B81282F30E03987288788859985FE
:100E8000009731F02885398521303105B1F098C0BF
:100E9000A8E3B0E0E8E3F0E08081482F8A81282FC2
:100EA00030E081E090E0022E02C0880F991F0A9482
:100EB000E2F7809584238C9383C0A8E3B0E0E8E355
:100EC000F0E08081482F8A81282F30E081E090E097
:100ED000022E02C0880F991F0A94E2F7842B8C938C
:100EE0006FC08B81282F30E03F832E838E819F81BE
:100EF000009731F02E813F8121303105B1F060C083
:100F0000A5E3B0E0E5E3F0E08081482F8A81282F57
:100F100030E081E090E0022E02C0880F991F0A9411
:100F2000E2F7809584238C934BC0A5E3B0E0E5E322
:100F3000F0E08081482F8A81282F30E081E090E026
:100F4000022E02C0880F991F0A94E2F7842B8C931B
:100F500037C08B81282F30E03D832C838C819D818D
:100F6000009731F02C813D8121303105B1F028C04E
:100F7000A2E3B0E0E2E3F0E08081482F8A81282FED
:100F800030E081E090E0022E02C0880F991F0A94A1
:100F9000E2F7809584238C9313C0A2E3B0E0E2E3F0
:100FA000F0E08081482F8A81282F30E081E090E0B6
:100FB000022E02C0880F991F0A94E2F7842B8C93AB
:100FC0002D960FB6F894DEBF0FBECDBFCF91DF9147
:100FD0000895DF93CF9300D000D000D0CDB7DEB717
:100FE00089836A835C834B838981843008F079C06C
:100FF0008A81883008F075C08B819C81009709F444
:1010000070C08981282F30E03E832D834D815E8121
:101010004130510559F18D819E818230910534F422
:101020002D813E812115310569F05BC04D815E81C6
:101030004230510579F18D819E818330910509F40B
:101040003DC04FC0E9E3F0E08081282F30E08A8185
:10105000882F90E0A90102C0559547958A95E2F73F
:10106000CA018170EB81FC8180833BC0E6E3F0E044
:101070008081282F30E08A81882F90E0A90102C06A
:10108000559547958A95E2F7CA018170EB81FC81FD
:10109000808327C0E3E3F0E08081282F30E08A815D
:1010A000882F90E0A90102C0559547958A95E2F7EF
:1010B000CA018170EB81FC81808313C0E0E3F0E022
:1010C0008081282F30E08A81882F90E0A90102C01A
:1010D000559547958A95E2F7CA018170EB81FC81AD
:1010E000808326960FB6F894DEBF0FBECDBFCF919A
:1010F000DF910895DF93CF9300D000D0CDB7DEB756
:1011000089836A838981843008F072C08A8188303B
:1011100008F06EC08981282F30E03C832B838B81BF
:101120009C818130910549F12B813C812230310530
:101130002CF48B819C81009761F05AC02B813C81FB
:101140002230310571F18B819C8183309105E9F169
:101150004FC0ABE3B0E0EBE3F0E08081482F8A8141
:10116000282F30E081E090E0022E02C0880F991F06
:101170000A94E2F784278C933BC0A8E3B0E0E8E34D
:10118000F0E08081482F8A81282F30E081E090E0D4
:10119000022E02C0880F991F0A94E2F784278C93CD
:1011A00027C0A5E3B0E0E5E3F0E08081482F8A8125
:1011B000282F30E081E090E0022E02C0880F991FB6
:1011C0000A94E2F784278C9313C0A2E3B0E0E2E331
:1011D000F0E08081482F8A81282F30E081E090E084
:1011E000022E02C0880F991F0A94E2F784278C937D
:1011F0000F900F900F900F90CF91DF910895DF9394
:10120000CF9300D000D0CDB7DEB789836A838981C0
:10121000843008F072C08A81883008F06EC08981FD
:10122000282F30E03C832B838B819C81813091057A
:1012300049F12B813C81223031052CF48B819C813A
:10124000009761F05AC02B813C812230310571F149
:101250008B819C8183309105E9F14FC0ABE3B0E015
:10126000EBE3F0E08081482F8A81282F30E081E095
:1012700090E0022E02C0880F991F0A94E2F7842B97
:101280008C933BC0A8E3B0E0E8E3F0E08081482F16
:101290008A81282F30E081E090E0022E02C0880F82
:1012A000991F0A94E2F7842B8C9327C0A5E3B0E042
:1012B000E5E3F0E08081482F8A81282F30E081E04B
:1012C00090E0022E02C0880F991F0A94E2F7842B47
:1012D0008C9313C0A2E3B0E0E2E3F0E08081482FFA
:1012E0008A81282F30E081E090E0022E02C0880F32
:1012F000991F0A94E2F7842B8C930F900F900F9014
:101300000F90CF91DF910895DF93CF93CDB7DEB7E4
:101310002C970FB6F894DEBF0FBECDBF89836A83CA
:101320008981843008F086C08A818F3F21F08A81CC
:10133000882309F07FC08981282F30E03C872B87E4
:101340008B859C858130910571F12B853C85223000
:1013500031052CF48B859C85009769F06BC02B853B
:101360003C8522303105B9F18B859C858330910510
:1013700009F449C05FC08A81282F30E03A87298765
:1013800089859A85009731F029853A852F3F310567
:1013900029F050C0EAE3F0E010824CC0EAE3F0E04C
:1013A0008FEF808347C08A81282F30E038872F83D2
:1013B0008F819885009731F02F8138852F3F310537
:1013C00029F038C0E7E3F0E0108234C0E7E3F0E052
:1013D0008FEF80832FC08A81282F30E03E832D83BA
:1013E0008D819E81009731F02D813E812F3F310507
:1013F00029F020C0E4E3F0E010821CC0E4E3F0E058
:101400008FEF808317C08A81282F30E03C832B83A5
:101410008B819C81009731F02B813C812F3F3105DE
:1014200029F008C0E1E3F0E0108204C0E1E3F0E05D
:101430008FEF80832C960FB6F894DEBF0FBECDBF22
:10144000CF91DF910895DF93CF9300D000D0CDB737
:10145000DEB789836A838981843090F58981282F5A
:1014600030E03C832B838B819C8181309105D1F0CE
:101470002B813C81223031052CF48B819C8100979B
:1014800061F01EC02B813C812230310581F08B81BF
:101490009C818330910581F013C0EBE3F0E08A81F9
:1014A00080830EC0E8E3F0E08A81808309C0E5E331
:1014B000F0E08A81808304C0E2E3F0E08A818083E7
:1014C0000F900F900F900F90CF91DF910895DF93C1
:1014D000CF9300D000D00F92CDB7DEB789837B8346
:1014E0006A838981843008F03EC08A819B8100979D
:1014F000D1F18981282F30E03D832C838C819D811F
:1015000081309105E1F02C813D81223031052CF4B0
:101510008C819D81009761F026C02C813D81223015
:101520003105A1F08C819D8183309105B1F01BC004
:10153000E9E3F0E08081EA81FB81808314C0E6E387
:10154000F0E08081EA81FB8180830DC0E3E3F0E07D
:101550008081EA81FB81808306C0E0E3F0E0808146
:10156000EA81FB8180830F900F900F900F900F9076
:10157000CF91DF910895DF93CF9300D00F92CDB735
:10158000DEB789838981843008F03EC08981282FA5
:1015900030E03B832A838A819B8181309105E9F089
:1015A0002A813B81223031052CF48A819B8100976E
:1015B00061F02AC02A813B8122303105B1F08A8155
:1015C0009B8183309105C9F01FC0ABE3B0E0EBE332
:1015D000F0E0808180958C9317C0A8E3B0E0E8E349
:1015E000F0E0808180958C930FC0A5E3B0E0E5E347
:1015F000F0E0808180958C9307C0A2E3B0E0E2E345
:10160000F0E0808180958C930F900F900F90CF9198
:10161000DF910895DF93CF9300D00F92CDB7DEB75F
:1016200089838981843090F58981282F30E03B833C
:101630002A838A819B8181309105D1F02A813B8167
:10164000223031052CF48A819B81009761F01EC005
:101650002A813B812230310581F08A819B81833050
:10166000910581F013C0EBE3F0E08FEF80830EC0B3
:10167000E8E3F0E08FEF808309C0E5E3F0E08FEF6F
:10168000808304C0E2E3F0E08FEF80830F900F903F
:101690000F90CF91DF910895DF93CF93CDB7DEB751
:1016A000AFE5B0E0EFE5F0E0808180688C93CF910A
:1016B000DF910895DF93CF93CDB7DEB7AFE5B0E00C
:1016C000EFE5F0E080818F778C93CF91DF910895E3
:1016D000DF93CF9300D0CDB7DEB789836A8389814A
:1016E0006A8141E00E94A3050F900F90CF91DF9196
:1016F0000895DF93CF9300D000D00F92CDB7DEB71F
:1017000089836A834B838B81282F30E03D832C8330
:101710008C819D818130910531F02C813D81223079
:10172000310539F00BC089816A8141E00E94C6060B
:1017300005C089816A8140E00E94C6060F900F9023
:101740000F900F900F90CF91DF910895DF93CF937B
:1017500000D000D00F92CDB7DEB789836A834B8368
:101760008B81282F30E03D832C838C819D818130BB
:10177000910531F02C813D812230310539F00BC0CB
:1017800089816A8140E00E94C60605C089816A811C
:1017900041E00E94C6060F900F900F900F900F909F
:1017A000CF91DF910895DF93CF9300D0CDB7DEB70F
:1017B00089836A8389816A810E947A080F900F90D9
:1017C000CF91DF910895DF93CF93CDB7DEB7A5E436
:1017D000B0E0E5E4F0E080818F7B8C93A5E4B0E09D
:1017E000E5E4F0E0808188608C93A9E5B0E0E9E56C
:1017F000F0E0808180688C93CF91DF910895DF9332
:10180000CF93CDB7DEB7A5E4B0E0E5E4F0E08081AA
:101810008E7F8C93A5E4B0E0E5E4F0E080818D7FDD
:101820008C93A5E4B0E0E5E4F0E0808184608C93E3
:10183000CF91DF910895DF93CF93CDB7DEB7A5E4C5
:10184000B0E0E5E4F0E080818E7F8C93A5E4B0E029
:10185000E5E4F0E080818D7F8C93A5E4B0E0E5E4E1
:10186000F0E080818B7F8C93CF91DF910895DF939F
:10187000CF930F92CDB7DEB78983E3E4F0E089819F
:1018800080830F90CF91DF910895DF93CF9300D0A5
:10189000CDB7DEB79A83898389819A81009731F029
:1018A00089819A8190937300809372000F900F90BA
:1018B000CF91DF9108951F920F920FB60F921124CE
:1018C0002F933F934F935F936F937F938F939F9348
:1018D000AF93BF93EF93FF93DF93CF93CDB7DEB773
:1018E0008091720090917300009729F0E09172004E
:1018F000F09173000995CF91DF91FF91EF91BF9126
:10190000AF919F918F917F916F915F914F913F9197
:101910002F910F900FBE0F901F901895DF93CF93CC
:10192000CDB7DEB70E944C0B0E94E30B89EF0E94FB
:10193000370C8CE49DE00E94450C0E94FF0BCF9178
:10194000DF910895DF93CF9300D000D00F92CDB7F1
:10195000DEB789837B836A835D834C83898184308E
:1019600008F047C08C819D81009709F442C08981AD
:10197000282F30E0C901880F991F880F991F820F07
:10198000931FFC01EA58FF4F80819181009789F5F0
:101990008981282F30E0C901880F991F880F991F6E
:1019A000820F931FFC01EA58FF4F8C819D81918328
:1019B00080838981282F30E0C901880F991F880F03
:1019C000991F820F931FFC01E858FF4F8A819B816A
:1019D000918380838981282F30E0C901880F991F66
:1019E000880F991F820F931FFC01E658FF4F82E07A
:1019F00080830F900F900F900F900F90CF91DF91F9
:101A00000895DF93CF930F92CDB7DEB78983898195
:101A1000282F30E0C901880F991F880F991F820F66
:101A2000931FFC01EA58FF4F118210820F90CF9153
:101A3000DF910895DF93CF930F92CDB7DEB78983FF
:101A40008981282F30E0C901880F991F880F991FBD
:101A5000820F931FFC01E658FF4F81E080830F90B7
:101A6000CF91DF910895DF93CF930F92CDB7DEB77B
:101A700089838981282F30E0C901880F991F880F39
:101A8000991F820F931FFC01E658FF4F82E080836D
:101A90000F90CF91DF910895DF93CF930F92CDB741
:101AA000DEB7809174009091750001969093750057
:101AB0008093740019824EC08981282F30E0C901BB
:101AC000880F991F880F991F820F931FFC01E658FA
:101AD000FF4F80818230D9F540917400509175009C
:101AE0008981282F30E0C901880F991F880F991F1D
:101AF000820F931FFC01E858FF4F20813181CA01FA
:101B0000B9010E94DD11009711F58981282F30E07D
:101B1000C901880F991F880F991F820F931FFC011D
:101B2000EA58FF4F80819181009789F08981282FA1
:101B300030E0C901880F991F880F991F820F931FEA
:101B4000FC01EA58FF4F0190F081E02D0995898151
:101B50008F5F89838981843008F4AECF0F90CF9155
:101B6000DF910895DF93CF93CDB7DEB781E06FEFBC
:101B70000E94840980E061E041E00E94A30580E0CA
:101B800062E041E00E94A305CF91DF910895DF93C9
:101B9000CF9300D000D0CDB7DEB789836A83898127
:101BA0008A3088F58A81282F30E03C832B838B8113
:101BB0009C818630910531F02B813C812B3531059C
:101BC00091F021C08981882F90E0FC01E859FF4FF6
:101BD000908181E0692F0E94230A80E061E040E06B
:101BE0000E94C60610C08981882F90E0FC01E85948
:101BF000FF4F908181E0692F0E94230A80E062E01C
:101C000040E00E94C6060F900F900F900F90CF916A
:101C1000DF910895DF93CF93CDB7DEB76F970FB6FF
:101C2000F894DEBF0FBECDBF8F8F8F8D843608F046
:101C300025C18F8D9AE0692F0E94D111892F8E8F37
:101C40008F8D9AE0692F0E94D1118D8F80E061E025
:101C500041E00E94C60680E062E041E00E94C606C4
:101C60008D8D882F90E0FC01E859FF4F908181E035
:101C7000692F0E94230A80E061E040E00E94C606CE
:101C800080E090E0A0E2B1E4898F9A8FAB8FBC8FA7
:101C9000698D7A8D8B8D9C8D20E030E04AE755E48C
:101CA0000E941F02DC01CB018D8B9E8BAF8BB88F06
:101CB0006D897E898F89988D20E030E040E85FE370
:101CC0000E94790388232CF481E090E09C8B8B8B1D
:101CD0003FC06D897E898F89988D20E03FEF4FE767
:101CE00057E40E94190318164CF5698D7A8D8B8D77
:101CF0009C8D20E030E040E251E40E941F02DC01B4
:101D0000CB01BC01CD010E944900DC01CB019C8BC1
:101D10008B8B0FC080E991E09A8B898B89899A8996
:101D20000197F1F79A8B898B8B899C8901979C8B02
:101D30008B8B8B899C89009769F714C06D897E898C
:101D40008F89988D0E944900DC01CB019C8B8B8B85
:101D50008B899C89988B8F878F8598890197F1F75C
:101D6000988B8F8780E061E041E00E94C6068E8DEF
:101D7000882F90E0FC01E859FF4F908181E0692FA6
:101D80000E94230A80E062E040E00E94C60680E0F4
:101D900090E0A0E2B1E48B879C87AD87BE876B851E
:101DA0007C858D859E8520E030E04AE755E40E94E1
:101DB0001F02DC01CB018F839887A987BA876F81C7
:101DC000788589859A8520E030E040E85FE30E94CD
:101DD000790388232CF481E090E09E838D833FC0BB
:101DE0006F81788589859A8520E03FEF4FE757E43A
:101DF0000E94190318164CF56B857C858D859E8590
:101E000020E030E040E251E40E941F02DC01CB01FF
:101E1000BC01CD010E944900DC01CB019E838D8372
:101E20000FC080E991E09C838B838B819C8101971B
:101E3000F1F79C838B838D819E8101979E838D8397
:101E40008D819E81009769F714C06F81788589859F
:101E50009A850E944900DC01CB019E838D838D8190
:101E60009E819A83898389819A810197F1F79A8368
:101E7000898380E062E041E00E94C6066F960FB65B
:101E8000F894DEBF0FBECDBFCF91DF910895DF93F1
:101E9000CF93CDB7DEB7C054D0400FB6F894DEBFB5
:101EA0000FBECDBF83E064E041E00E94A60B83E05B
:101EB00067E041E00E94A60B83E060E041E00E9401
:101EC000790B81E090E0FE01FF96918380837EC0D4
:101ED0008FAD0E940A0E80E090E4ACE9B5E48DABD2
:101EE0009EABAFABB8AF6DA97EA98FA998AD20E02E
:101EF00030E04AE753E40E941F02DC01CB0189ABCA
:101F00009AABABABBCAB69A97AA98BA99CA920E021
:101F100030E040E85FE30E94790388232CF481E0FD
:101F200090E098AB8FA73FC069A97AA98BA99CA91B
:101F300020E03FEF4FE757E40E94190318164CF5D5
:101F40006DA97EA98FA998AD20E030E040E251E470
:101F50000E941F02DC01CB01BC01CD010E9449009F
:101F6000DC01CB0198AB8FA70FC089E190E09EA761
:101F70008DA78DA59EA50197F1F79EA78DA78FA58B
:101F800098A9019798AB8FA78FA598A9009769F793
:101F900014C069A97AA98BA99CA90E944900DC01F7
:101FA000CB0198AB8FA78FA598A99CA78BA78BA5D2
:101FB0009CA50197F1F79CA78BA7FE01FF96808156
:101FC00091810196FE01FF9691838083FE01FF9629
:101FD000808191818D3391050CF47ACF83E060E0AC
:101FE00041E00E94A60B83E067E041E00E94A60B5F
:101FF00083E064E041E00E94790B81E090E09EAFD5
:102000008DAF7AC08DAD0E940A0E80E090E4ACE9FD
:10201000B5E48FA398A7A9A7BAA76FA178A589A5AA
:102020009AA520E030E04AE753E40E941F02DC0159
:10203000CB018BA39CA3ADA3BEA36BA17CA18DA15F
:102040009EA120E030E040E85FE30E94790388230E
:102050002CF481E090E09AA389A33FC06BA17CA1FE
:102060008DA19EA120E03FEF4FE757E40E941903A6
:1020700018164CF56FA178A589A59AA520E030E047
:1020800040E251E40E941F02DC01CB01BC01CD0102
:102090000E944900DC01CB019AA389A30FC089E10A
:1020A00090E098A38F8F8F8D98A10197F1F798A357
:1020B0008F8F89A19AA101979AA389A389A19AA137
:1020C000009769F714C06BA17CA18DA19EA10E940D
:1020D0004900DC01CB019AA389A389A19AA19E8F13
:1020E0008D8F8D8D9E8D0197F1F79E8F8D8F8DAD8C
:1020F0009EAD01969EAF8DAF8DAD9EAD86309105A4
:102100000CF480CF83E060E041E00E94A60B83E006
:1021100064E041E00E94A60B83E067E041E00E949A
:10212000790B81E090E09CAF8BAF7AC08BAD0E94C1
:102130000A0E80E090E4ACE9B5E4898F9A8FAB8F0A
:10214000BC8F698D7A8D8B8D9C8D20E030E04AE7C5
:1021500053E40E941F02DC01CB018D8B9E8BAF8B61
:10216000B88F6D897E898F89988D20E030E040E8B6
:102170005FE30E94790388232CF481E090E09C8B3C
:102180008B8B3FC06D897E898F89988D20E03FEFD2
:102190004FE757E40E94190318164CF5698D7A8DA4
:1021A0008B8D9C8D20E030E040E251E40E941F02C4
:1021B000DC01CB01BC01CD010E944900DC01CB0157
:1021C0009C8B8B8B0FC089E190E09A8B898B8989DE
:1021D0009A890197F1F79A8B898B8B899C89019752
:1021E0009C8B8B8B8B899C89009769F714C06D89B8
:1021F0007E898F89988D0E944900DC01CB019C8BE0
:102200008B8B8B899C89988B8F878F859889019779
:10221000F1F7988B8F878BAD9CAD01969CAF8BAF00
:102220008BAD9CAD8D3391050CF480CF83E060E0E5
:1022300041E00E94A60B83E067E041E00E94A60B0C
:1022400083E064E041E00E94790B81E090E09AAF86
:1022500089AF7AC089AD0E940A0E80E090E4ACE9B3
:10226000B5E48B879C87AD87BE876B857C858D8524
:102270009E8520E030E04AE753E40E941F02DC0123
:10228000CB018F839887A987BA876F8178858985E5
:102290009A8520E030E040E85FE30E9479038823DC
:1022A0002CF481E090E09E838D833FC06F81788520
:1022B00089859A8520E03FEF4FE757E40E94190394
:1022C00018164CF56B857C858D859E8520E030E069
:1022D00040E251E40E941F02DC01CB01BC01CD01B0
:1022E0000E944900DC01CB019E838D830FC089E1F0
:1022F00090E09C838B838B819C810197F1F79C8379
:102300008B838D819E8101979E838D838D819E819C
:10231000009769F714C06F81788589859A850E9436
:102320004900DC01CB019E838D838D819E819A8340
:10233000898389819A810197F1F79A83898389AD8D
:102340009AAD01969AAF89AF89AD9AAD8630910565
:102350000CF480CFC05CDF4F0FB6F894DEBF0FBE29
:10236000CDBFCF91DF910895DF93CF93CDB7DEB787
:102370000E94B20D83E060E00E94680B83E064E09D
:102380000E94680B83E067E00E94680B27E43FE04F
:1023900080E061E070E0A9010E94A20C0E948E0C16
:1023A000F5CF991B79E004C0991F961708F0961B8A
:1023B000881F7A95C9F780950895AA1BBB1B51E128
:1023C00007C0AA1FBB1FA617B70710F0A61BB70BA5
:1023D000881F991F5A95A9F780959095BC01CD014A
:1023E00008952F923F924F925F926F927F928F92B9
:1023F0009F92AF92BF92CF92DF92EF92FF920F9394
:102400001F93CF93DF93CDB7DEB7CA1BDB0B0FB69D
:10241000F894DEBF0FBECDBF09942A88398848885A
:102420005F846E847D848C849B84AA84B984C884F0
:10243000DF80EE80FD800C811B81AA81B981CE0FE7
:10244000D11D0FB6F894DEBF0FBECDBFED010895CC
:04245000F894FFCF2E
:1024540000000000000000003F065B4F666D7D0732
:022464007F6F88
:00000001FF
