:020000040800F2
:1000000000000120510A0008A10A0008A10A000806
:10001000A10A0008A10A0008A10A000800000000C7
:10002000000000000000000000000000A10A00081D
:10003000A10A000800000000A10A0008A10A0008A7
:10004000A10A0008A10A0008A10A0008A10A0008E4
:10005000A10A0008A10A0008A10A0008A10A0008D4
:10006000A10A0008A10A0008A10A0008A10A0008C4
:10007000A10A0008A10A0008A10A0008A10A0008B4
:10008000A10A0008A10A0008A10A0008A10A0008A4
:10009000A10A0008A10A0008A10A0008A10A000894
:1000A000A10A0008A10A0008A10A0008A10A000884
:1000B000A10A0008A10A0008A10A0008A10A000874
:1000C000A10A0008A10A0008A10A0008A10A000864
:1000D000A10A0008A10A0008A10A0008A10A000854
:1000E000A10A0008A10A0008A10A0008A10A000844
:1000F000A10A0008A10A0008A10A0008A10A000834
:10010000A10A00080000000000000000A10A000889
:10011000A10A0008A10A0008A10A0008A10A000813
:10012000A10A0008A10A0008A10A0008A10A000803
:10013000A10A0008A10A0008000000000000000059
:10014000A10A0008A10A0008A10A00080000000096
:10015000000000000000000000000000000000009F
:10016000A10A0008A10A0008A10A0008A10A0008C3
:10017000A10A0008A10A0008A10A0008A10A0008B3
:10018000A10A0008000000000000000000000000BC
:04019000A10A0008B8
:1001940010B5054C237833B9044B13B10448AFF3BD
:1001A40000800123237010BD2C00002000000000FB
:1001B400EC0A000808B5034B1BB103490348AFF32D
:1001C400008008BD0000000030000020EC0A000898
:1001D40090B484B000AF78600123FB737B68002B7C
:1001E40000F026817B681B78072B00F21E817B6858
:1001F4005B780F2B00F219817B681B781A46914BB0
:1002040053F822301A687B685B785B00032101FA9B
:1002140003F3DB4319467B681B781846894B53F874
:1002240020300A401A607B681B781A46854B53F8C5
:1002340022301A687B689B7819467B685B785B0080
:1002440001FA03F319467B681B7818467D4B53F873
:1002540020300A431A607B681B781A46794B53F89E
:100264002230DA687B685B785B00032101FA03F3D0
:10027400DB4319467B681B781846724B53F82030D1
:100284000A40DA607B681B781A466E4B53F82230BA
:10029400DA687B685B7919467B685B785B0001FAF6
:1002A40003F319467B681B781846664B53F82030D5
:1002B4000A43DA607B689B78012B04D07B689B78C7
:1002C400022B40F0B8807B681B781A465D4B53F8CC
:1002D40022305A687B685B78194601238B40DB43E4
:1002E40019467B681B781846564B53F820300A4051
:1002F4005A607B681B781A46524B53F822305A686E
:100304007B681B7919467B685B7801FA03F319460D
:100314007B681B7818464B4B53F820300A435A60CD
:100324007B681B781A46474B53F822309A687B68DF
:100334005B785B00032101FA03F3DB4319467B6816
:100344001B7818463F4B53F820300A409A607B686C
:100354001B781A463B4B53F822309A687B68DB784B
:1003640019467B685B785B0001FA03F319467B68E6
:100374001B781846334B53F820300A439A607B6845
:100384009B78022B57D17B681B781A462D4B53F868
:1003940022307A685278D208D2B2083253F8222036
:1003A4007B685B7803F007039B000F2101FA03F3DA
:1003B400DB431C467B681B781946224B53F82130DB
:1003C40079684978C908C9B2084602EA040100F10B
:1003D400080243F822107B681B781A46194B53F81D
:1003E40022307A685278D208D2B2083253F82220E6
:1003F4007B689B7919467B685B7803F007039B0055
:1004040001FA03F31C467B681B7819460D4B53F81D
:10041400213079684978C908C9B2084642EA04011A
:1004240000F1080243F8221005E00023FB7303E007
:100434000223FB7300E000BFFB7B18461037BD4668
:1004440090BC70470000002080B485B000AF034624
:10045400FB710B46BB7113467B710123FB73FB7964
:10046400072B2ED8BB790F2B2BD87B79002B11D1DE
:10047400FB79184A52F823305A69BB79012101FAF1
:1004840003F3DB431846FB79124951F82330024049
:100494005A6118E07B79012B10D1FB790D4A52F88F
:1004A40023305A69BB79012101FA03F31846FB7919
:1004B400084951F8233002435A6104E00023FB73D6
:1004C40001E00023FB73FB7B18461437BD465DF83F
:1004D400047B70470000002080B483B000AF034663
:1004E4000A46FB711346BB71FB79022B3CD0022BED
:1004F4005ADC002B02D0012B1BD055E0BB79002B1A
:100504000FD0012B4BD12B4B1B682A4A43F001031C
:10051400136000BF274B1B6803F00203002BF9D0C4
:1005240006E0244B1B68234A23F00103136000BF39
:1005340035E0BB79002B0FD0012B32D11D4B1B684A
:100544001C4A43F48033136000BF1A4B1B6803F446
:100554000033002BF9D006E0164B1B68154A23F430
:100564008033136000BF1CE0BB79002B0FD0012B3C
:1005740019D1104B1B680F4A43F08073136000BFFE
:100584000C4B1B6803F00073002BF9D006E0094BF9
:100594001B68084A23F08073136000BF03E000BFA8
:1005A40002E000BF00E000BF00BF0C37BD465DF8AD
:1005B400047B70470010024080B483B000AF034650
:1005C400FB71FB79022B20D0022B2BDC002B02D0F9
:1005D400012B0DD026E0164B5B68154A23F001036E
:1005E4005360134B5B68124A23F00203536019E013
:1005F4000F4B5B680E4A43F0010353600C4B5B687E
:100604000B4A23F0020353600CE0094B5B68084A71
:1006140023F001035360064B5B68054A43F0020371
:10062400536000BF00BF0C37BD465DF8047B7047C4
:100634000010024080B483B000AF0346FB71FB7925
:10064400102B00F29C8001A252F823F095060008BA
:10065400A3060008B1060008BF060008CD0600087E
:10066400DB060008E9060008F7060008050700088D
:1006740013070008210700082F0700083D0700089A
:100684004B070008590700086707000875070008AA
:100694003E4B5B693D4A43F0010353616FE03B4BC2
:1006A4005B693A4A43F00203536168E0374B5B6984
:1006B400364A43F00403536161E0344B5B69334AC7
:1006C40043F0100353615AE0304B5B692F4A43F007
:1006D4002003536153E02D4B5B692C4A43F04003E4
:1006E40053614CE0294B5B69284A43F480335361DE
:1006F40045E0264B5B69254A43F4003353613EE0F1
:10070400224B5B69214A43F48023536137E01F4B3A
:100714005B691E4A43F40023536130E01B4B5B6961
:100724001A4A43F48013536129E0184B5B69174A52
:1007340043F40013536122E0144B5B69134A43F4FE
:10074400800353611BE0114B5B69104A43F40003BF
:10075400536114E00D4B5B690C4A43F080735361A1
:100764000DE00A4B5B69094A43F08053536106E08C
:10077400064B5B69054A43F00053536100BF00BF59
:100784000C37BD465DF8047B704700BF0010024083
:1007940080B582B000AF03460A46FB711346BB71B5
:1007A400FB79092B1DD8BB79062B02D05B2B0CD00F
:1007B40017E0FB790D4AD35C184600F019F80022C3
:1007C40002210220FFF740FE0BE0FB79074AD35CCD
:1007D400184600F00DF8002203210220FFF734FE32
:1007E40000BF00BF0837BD4680BD00BF2000002009
:1007F40080B582B000AF0346FB71FB7903F00103BF
:10080400002B05D100220A210220FFF71DFE04E07F
:1008140001220A210220FFF717FEFB795B08DBB2F5
:1008240003F00103002B05D100220C210220FFF765
:100834000BFE04E001220C210220FFF705FEFB79E8
:100844009B08DBB203F00103002B05D10022062133
:100854000520FFF7F9FD04E0012206210520FFF73A
:10086400F3FDFB79DB08DBB203F00103002B05D1B8
:10087400002207210520FFF7E7FD04E001220721FC
:100884000520FFF7E1FDFB791B09DBB203F001034F
:10089400002B05D100220D210020FFF7D5FD04E037
:1008A40001220D210020FFF7CFFDFB795B09DBB2AC
:1008B40003F00103002B05D100220E210020FFF7D5
:1008C400C3FD04E001220E210020FFF7BDFDFB79EA
:1008D4009B09DBB203F00103002B05D100220F2199
:1008E4000020FFF7B1FD04E001220F210020FFF7F3
:1008F400ABFD00BF0837BD4680BD80B592B000AFE8
:1009040001210020FFF7E8FD0020FFF755FE092034
:10091400FFF790FE0720FFF78DFE0C20FFF78AFEFD
:1009240007F1400300221A60C3F80320022387F86A
:100934004030012387F8423007F1380300221A605F
:10094400C3F80320022387F83830012387F83A30AC
:1009540007F1300300221A60C3F80320052387F847
:100964003030012387F8323007F1280300221A605F
:10097400C3F80320052387F82830012387F82A3099
:1009840007F1200300221A60C3F80320012387F82B
:10099400223007F1180300221A60C3F80320012350
:1009A400BB7607F1100300221A60C3F80320012369
:1009B400BB7407F1080300221A60C3F80320022362
:1009C4003B720123BB723B4600221A60C3F803202A
:1009D40002233B700123BB7007F140031846FFF765
:1009E400F7FB07F138031846FFF7F2FB07F1300372
:1009F4001846FFF7EDFB07F128031846FFF7E8FB5D
:100A040007F120031846FFF7E3FB07F11803184624
:100A1400FFF7DEFB07F110031846FFF7D9FB07F1D8
:100A240008031846FFF7D4FB3B461846FFF7D0FBF4
:100A340000BF4837BD4680BD80B500AFFFF75DFFFE
:100A440001210820FFF7A4FEFAE700000D488546BF
:100A5400AFF300800C480D490D4A002302E0D4583E
:100A6400C4500433C4188C42F9D30A4A0A4C0023F4
:100A740001E013600432A242FBD300F011F8FFF747
:100A8400DBFFFEE700000120000000202C00002016
:100A94000C0B00082C00002048000020FEE700009A
:100AA40070B50D4D0D4C641BA4100026A64209D14F
:100AB4000B4D0C4C00F018F8641BA4100026A64241
:100AC40005D170BD55F8043B98470136EEE755F85B
:100AD400043B98470136F2E7040B0008040B0008B6
:100AE400040B0008080B0008F8B500BFF8BC08BCEC
:100AF4009E467047F8B500BFF8BC08BC9E467047D8
:040B0400B90100082B
:040B0800950100084B
:100B0C00000000480004004800080048000C0048A1
:100B1C00001000480014004800180048001C004851
:0C0B2C003F065B4F666D7D077F6F000089
:0400000508000A5194
:00000001FF
