:100000000C942A000C9447000C9447000C94470071
:100010000C9447000C9447000C9447000C94C303C5
:100020000C9447000C9447000C9447000C94470034
:100030000C9447000C9447000C9447000C94470024
:100040000C9447000C9447000C9447000C94470014
:100050000C94470011241FBECFE5D8E0DEBFCDBF12
:1000600010E0A0E6B0E0E0E3F1E102C005900D92FF
:10007000A438B107D9F724E0A4E8B0E001C01D928C
:10008000A53DB207E1F70E9438020C9496080C9443
:100090000000843008F07EC0683008F07BC0423039
:1000A00008F078C0813019F130F08230E1F183300E
:1000B00009F455C00895442319F0413069F00895BA
:1000C0002AB381E090E002C0880F991F6A95E2F799
:1000D000809582238ABB08952AB381E090E002C014
:1000E000880F991F6A95E2F7822B8ABB08954423F3
:1000F00019F0413069F0089527B381E090E002C023
:10010000880F991F6A95E2F78095822387BB08952F
:1001100027B381E090E002C0880F991F6A95E2F74B
:10012000822B87BB0895442319F0413069F008956C
:1001300024B381E090E002C0880F991F6A95E2F72E
:100140008095822384BB089524B381E090E002C0AF
:10015000880F991F6A95E2F7822B84BB0895442388
:1001600019F0413069F0089521B381E090E002C0B8
:10017000880F991F6A95E2F78095822381BB0895C5
:1001800021B381E090E002C0880F991F6A95E2F7E1
:10019000822B81BB0895843008F07EC0683008F05F
:1001A0007BC0423008F078C0813019F130F08230E5
:1001B000E1F1833009F455C00895442319F041302A
:1001C00069F008952BB381E090E002C0880F991F79
:1001D0006A95E2F7809582238BBB08952BB381E06B
:1001E00090E002C0880F991F6A95E2F7822B8BBBC3
:1001F0000895442319F0413069F0089528B381E04F
:1002000090E002C0880F991F6A95E2F780958223DB
:1002100088BB089528B381E090E002C0880F991F41
:100220006A95E2F7822B88BB0895442319F0413088
:1002300069F0089525B381E090E002C0880F991F0E
:100240006A95E2F78095822385BB089525B381E006
:1002500090E002C0880F991F6A95E2F7822B85BB58
:100260000895442319F0413069F0089522B381E0E4
:1002700090E002C0880F991F6A95E2F7809582236B
:1002800082BB089522B381E090E002C0880F991FDD
:100290006A95E2F7822B82BB0895CF93DF93EC013E
:1002A0000E944D062091840030918500C9018C0F79
:1002B0009D1F883E43E0940758F42817390758F4E7
:1002C000E901CA57DF4F909385008093840005C0F1
:1002D000C0E0D0E002C0C0E0D0E00E945707CE01ED
:1002E000DF91CF910895089541E00E94490008955B
:1002F000413019F0423029F0089541E00E94CB00CE
:10030000089540E00E94CB000895413019F042303A
:1003100029F0089540E00E94CB00089541E00E943A
:10032000CB000895FC010396928381832FEF3FEF6A
:1003300034832383968385839087878310820895EF
:10034000FC01118610860895CF93DF93EB0148815D
:1003500059814F3F2FEF520721F4FC01A781B0854F
:100360000DC0DC01139601C0DF011296ED91FC91E6
:1003700013972081318142175307B0F71296ED9100
:10038000FC911397FB83EA83D583C483BD83AC833D
:100390001396DC93CE93129799878887FC0120816E
:1003A0002F5F2083DF91CF910895CF93DF93FC01DE
:1003B000A085B185C281D381848195819D838C8301
:1003C000C481D581828193819B838A8311968D918B
:1003D0009C911297E817F90731F484819581129660
:1003E0009C938E931197118610868C9181508C93DB
:1003F0008C91DF91CF91089541E060E083E00E940D
:10040000780141E064E083E00E94850141E067E01B
:1004100083E00E94850180E69AEE0E942C08ECCFD2
:1004200041E060E083E00E94850141E064E083E018
:100430000E94850141E067E083E00E94780180E14D
:1004400097E20E942C08ECCF41E060E083E00E943C
:10045000850141E067E083E00E94850141E064E0BE
:1004600083E00E94780180E69AEE0E942C08ECCF8F
:1004700060E083E00E94740164E083E00E94740104
:1004800067E083E00E947401E12CF12C01E020E0A0
:1004900030E044E650E061E670E08CEF91E00E94CD
:1004A000CD0502E020E030E044E650E069E670E08F
:1004B00080E192E00E94CD0503E020E030E044E6D8
:1004C00050E064E770E084E292E00E94CD050E9473
:1004D0002106FFCF1BBC89EF8ABD8BE08EBD89B79B
:1004E000806189BF089531E1FC013083319722E2B8
:1004F00020833197A3E3A083319760833197708382
:1005000031971082319760E860833197108231977C
:1005100062E06083319763E06083319764E06083D9
:10052000319765E06083319766E06083319767E0DB
:100530006083319768E06083319769E06083319729
:1005400060E1608331973083319732E130833197B6
:1005500033E13083319734E13083319735E13083B3
:10056000319736E13083319737E13083319738E185
:100570003083319739E13083319730E230833197DE
:1005800031E2308331972083319723E22083319702
:10059000408331975083319726E22083319727E2B9
:1005A0002083319728E22083319729E220833197F5
:1005B00020E32083319721E32083869708950E94CA
:1005C0006A02A091D304B091D404CD91CDBFDD9146
:1005D000DEBFFF91EF91DF91CF91BF91AF919F91DE
:1005E0008F917F916F915F914F913F912F911F91CB
:1005F0000F91FF90EF90DF90CF90BF90AF909F90C2
:100600008F907F906F905F904F903F902F901F90B2
:100610000F900FBE0F90089581E008950F920FB6CE
:10062000F8940F921F9211242F923F924F925F9253
:100630006F927F928F929F92AF92BF92CF92DF92F2
:10064000EF92FF920F931F932F933F934F935F93DC
:100650006F937F938F939F93AF93BF93CF93DF93CA
:10066000EF93FF93A091D304B091D4040DB60D92F3
:100670000EB60D920E944208A091D304B091D4040A
:10068000CD91CDBFDD91DEBFFF91EF91DF91CF9195
:10069000BF91AF919F918F917F916F915F914F919A
:1006A0003F912F911F910F91FF90EF90DF90CF908E
:1006B000BF90AF909F908F907F906F905F904F9082
:1006C0003F902F901F900F900FBE0F9008950F92A4
:1006D0000FB6F8940F921F9211242F923F924F92CF
:1006E0005F926F927F928F929F92AF92BF92CF92C2
:1006F000DF92EF92FF920F931F932F933F934F93AD
:100700005F936F937F938F939F93AF93BF93CF9399
:10071000DF93EF93FF93A091D304B091D4040DB66F
:100720000D920EB60D920E94530681110E9442084E
:10073000A091D304B091D404CD91CDBFDD91DEBFA3
:10074000FF91EF91DF91CF91BF91AF919F918F91E9
:100750007F916F915F914F913F912F911F910F91D9
:10076000FF90EF90DF90CF90BF90AF909F908F90D1
:100770007F906F905F904F903F902F901F900F90C1
:100780000FBE0F9008950E9467031895E0919B0497
:10079000F0919C048081811107C08FEF9FEF9093AF
:1007A0007204809371040895E0919B04F0919C047D
:1007B0000580F681E02D8081918190937204809371
:1007C00071040895CF93DF93EC018F89988D0E9477
:1007D0007301CE010E947301DF91CF9108956F9252
:1007E0007F928F929F92AF92BF92CF92DF92EF92C1
:1007F0000F931F93CF93DF93CDB7DEB74C01D50195
:1008000057968D919C915897215031093C01620E69
:10081000731E6115710589F416C0822F90E0FB01EB
:10082000E80FF91F3081D501A80FB91F59963C93E5
:100830008081882329F02F5F01C020E02C3068F3ED
:10084000F50114A203C0D50159961C92B3E0BE1560
:1008500020F40F2EF3E0EF2EF02DF501E68AE5A24D
:1008600016A2C50102960E94A001C5010C960E9425
:10087000A001D5011996BC92AE92189784E090E041
:100880008E1991091D969C938E931C975396BC923A
:10089000AE92529784E0F501B796DF011D928A95DA
:1008A000E9F7F50113A6A801B401C3010E94730280
:1008B000D5018D939C93C114D10419F0F601B18236
:1008C000A082DF91CF911F910F91EF90DF90CF9099
:1008D000BF90AF909F908F907F906F900895CF932F
:1008E000C0E010C08C2F90E09C01220F331F220F1C
:1008F000331F220F331F820F931F81559B4F0E947E
:100900009201CF5FC43070F386EA94E00E949201B6
:100910008DE994E00E94920180E994E00E949201A6
:1009200087E894E00E9492018DE794E00E94920192
:1009300086EA94E090939C0480939B048DE994E074
:1009400090939A0480939904CF910895CF93DF9365
:10095000EC010FB6F8940F9280917C048F5F809326
:100960007C048091D3049091D404892B59F4D093C2
:10097000D404C093D30480917C04813099F40E9404
:100980006F0410C08091780481110CC0E091D304F1
:10099000F091D40496898E89891720F0D093D404DD
:1009A000C093D304809173048F5F809373048E8906
:1009B00090917904981710F48093790490E0FC01E9
:1009C000EE0FFF1FEE0FFF1FEE0FFF1F8E0F9F1F7B
:1009D000FC01E155FB4F0180F281E02DFD83EC83AA
:1009E000848195819F838E83A481B581CE010296F7
:1009F00013969C938E93129795838483EE89F0E0EF
:100A0000CF01880F991F880F991F880F991FE80F32
:100A1000F91FE155FB4FFB87EA8780818F5F808359
:100A20000F900FBE80917804882351F0E091D30499
:100A3000F091D40496898E89981710F40E940E03C1
:100A4000DF91CF910895CF93DF931CC00FB6F89438
:100A50000F92E0918C04F0918D04C681D781CE0174
:100A600002960E94D50180917C04815080937C0481
:100A7000809186048150809386040F900FBECE0132
:100A80000E94E203809186048111E0CFDF91CF9133
:100A900008950E942305FDCFFF920F931F93CF93DC
:100AA000DF93EC01F62E00917A0410917B04809183
:100AB000D3049091D40402960E94D501CF3F8FEFCA
:100AC000D807B1F5FF20A1F1EDE7F4E0A181B281F3
:100AD000C091D304D091D404BD83AC83C091D3041E
:100AE000D091D40414968D919C9115979F838E83F9
:100AF0001496CD91DC9115978091D3049091D404F4
:100B000002969B838A838091D3049091D4040296A9
:100B100015969C938E931497A091D304B091D4040E
:100B20001B96FC93EE931A9780818F5F80832FC072
:100B3000C00FD11FE091D304F091D404D383C283BA
:100B4000C017D10768F46091D3047091D4048091E8
:100B5000990490919A046E5F7F4F0E94A40117C080
:100B60006091D3047091D40480919B0490919C0473
:100B70006E5F7F4F0E94A401809171049091720476
:100B8000C817D90720F4D0937204C0937104DF9181
:100B9000CF911F910F91FF9008952F923F924F9206
:100BA0005F926F927F928F929F92AF92BF92CF92FD
:100BB000DF92EF92FF920F931F93CF93DF933C014D
:100BC0001B015A012901CA010E944D016C01892BA8
:100BD00071F08CE290E00E944D01EC01892B19F03C
:100BE000D88ECF8A06C0C6010E94730102C0C0E041
:100BF000D0E0209791F0950140E050E0812C912CBD
:100C00005E016701E02E8201B101C3010E94EF0382
:100C1000CE010E94A60481E001C08FEFDF91CF9149
:100C20001F910F91FF90EF90DF90CF90BF90AF900A
:100C30009F908F907F906F905F904F903F902F90FC
:100C40000895EF92FF920F930F2EFFE6EF2EF4E040
:100C5000FF2EF02D00E020E030E042E350E06EE7B0
:100C600070E089E495E00E94CD05813081F4F8942C
:100C70008FEF9FEF909372048093710481E08093D3
:100C8000780410927B0410927A040E94DF02809113
:100C900060000F91FF90EF90089580916E048F5F38
:100CA00080936E0408950F931F93CF93DF938091E9
:100CB0006E048111EBC0C0917A04D0917B048E0147
:100CC0000F5F1F4F10937B0400937A0401151105E9
:100CD000B9F480919B0490919C04209199043091E7
:100CE0009A0430939C0420939B0490939A048093DD
:100CF0009904809174048F5F809374040E94C603EA
:100D000080917104909172040817190720F480E013
:100D1000B8C081E001C080E0E0919B04F0919C04A8
:100D20009081911107C02FEF3FEF30937204209311
:100D30007104A7C0E0919B04F0919C040580F681AA
:100D4000E02D0680F781E02D228133810217130701
:100D500028F4309372042093710493C0A285B38564
:100D60002481358146815781E9015D834C83268149
:100D7000378144815581E9015B834A8311962D9126
:100D80003C911297AF014E5F5F4F2417350731F446
:100D90002681378112963C932E93119713861286E3
:100DA0009C9191509C93A489B589109719F126853F
:100DB000378560897189E9017D836C832089318958
:100DC00066857785E9017B836A8311966D917C91B5
:100DD00012979F01245F3F4F6217730731F42089F8
:100DE000318912963C932E931197158A148A9C91FF
:100DF00091509C93268990917904921710F4209336
:100E0000790430E0D901AA0FBB1FAA0FBB1FAA0F9C
:100E1000BB1F2A0F3B1FD901A155BB4F11960D9047
:100E2000BC91A02DB583A48314962D913C91159768
:100E30003783268314962D913C911597E9015B83A6
:100E40004A8315965C934E931497A689B0E09D0152
:100E5000220F331F220F331F220F331FA20FB31F86
:100E6000A155BB4FB387A2879C919F5F9C93268916
:100E7000E091D304F091D4049689291708F049CF62
:100E80004BCF9091750491110CC00CC080917604E9
:100E9000909177040196909377048093760480E094
:100EA00001C081E0DF91CF911F910F910895CF9301
:100EB000DF930FB6F8940F9280916E048150809367
:100EC0006E0480916E048111BFC080917C048111F9
:100ED00096C0BDC0E0919504F09196040680F7811C
:100EE000E02DA489B589C685D785808991899D83A0
:100EF0008C83C089D189868597859B838A83119647
:100F00002D913C911297CF010C962817390731F497
:100F10008089918912969C938E931197158A148AD1
:100F20008C9181508C93A285B385C481D5818681B3
:100F300097819D838C83C681D781848195819B8392
:100F40008A8311968D919C9112979F012E5F3F4F3E
:100F50008217930731F48681978112969C938E9322
:100F60001197138612868C9181508C93868990916B
:100F70007904981710F48093790490E0DC01AA0FAB
:100F8000BB1FAA0FBB1FAA0FBB1F8A0F9B1FDC0131
:100F9000A155BB4F11960D90BC91A02DB583A48394
:100FA00014968D919C911597978386831496CD9175
:100FB000DC9115973B832A8315963C932E931497C7
:100FC000A689B0E0CD01880F991F880F991F880F5F
:100FD000991FA80FB91FA155BB4FB387A2878C914A
:100FE0008F5F8C939689A091D304B091D4045696C8
:100FF0008C91981730F081E08093750402C0E0E096
:10100000F0E080919004811165CFEF2B11F00E94E8
:10101000C603C0917604D0917704209769F00E94AE
:101020005306882319F081E0809375042197B9F75E
:10103000109277041092760480917504882331F021
:101040000E940E0381E003C080E001C080E00F90A9
:101050000FBEDF91CF910895CF93DF93EC01892BE1
:1010600049F00E944D0660E0CE010E944C050E94AE
:10107000570701C080E0811102C00E940E03DF917A
:10108000CF91089580916E04882321F081E08093B0
:1010900075040895109275042091790401C02150BF
:1010A000822F90E0FC01EE0FFF1FEE0FFF1FEE0FEF
:1010B000FF1FE80FF91FE155FB4F3081332379F310
:1010C000AC01440F551F440F551F440F551F480FC7
:1010D000591FDF010180F281E02D0280F381E02DB4
:1010E0001296FC93EE9311974E545B4FE417F5075D
:1010F00029F442815381FD0152834183FC01EE0FAB
:10110000FF1FEE0FFF1FEE0FFF1F8E0F9F1FFC0133
:10111000E155FB4F0180F281E02D8681978190930C
:10112000D4048093D304209379040895F894FFCFD6
:10113000034C454420526564004C45442059656C7D
:101140006C6F77004C454420477265656E004944DA
:041150004C4500000A
:00000001FF
