S00C00006C6D33352E73726563D7
S11300000C942A000C943F000C943F000C943F0085
S11300100C943F000C943F000C943F000C943F0060
S11300200C943F000C943F000C943F000C943F0050
S11300300C943F000C943F000C943F000C943F0040
S11300400C943F000C943F000C943F000C943F0030
S11300500C943F0011241FBECFE5D8E0DEBFCDBF16
S113006010E0A0E6B0E0E4EBF6E002C005900D92EB
S1130070A03AB107D9F70E941A010C9458030C94C2
S11300800000969A00C096980895CF93DF93D82FD6
S1130090662311F0949A01C09498959881B38F6067
S11300A081BBC2B3C07F8D2F82958F708C2B82BB96
S11300B00E944100DF70DC2BD2BB0E944100CF6064
S11300C0C2BBDF91CF910895882311F0949A01C0A7
S11300D09498959A81B3807F81BB969A00C090B31F
S11300E0969800C0969A00C020B32F70892F8295ED
S11300F0807F9698822B089580E00E946400882374
S1130100DCF388E090E00197F1F780E00E9464005E
S11301100895CF93C82F0E947C0060E08C2F0E942A
S11301204500CF910895611104C080580E94890050
S1130130089580540E948900089581E00E948900F6
S11301400895CF93C82F0E947C00CA3049F48034AC
S113015010F080E001C080E480580E94890004C04F
S113016061E08C2F0E944500CF910895CF93DF93D7
S1130170EC012196FC018081882329F00E94A100D2
S113018089918111FBCFDF91CF9108951F93CF9374
S1130190DF93182F81B38F6781BB80E09AEF0197BB
S11301A0F1F7919A909A0E94410080E09EE40197B1
S11301B0F1F70E944100C0E0D1E0CE010197F1F7D0
S11301C00E944100CE010197F1F790980E944100EE
S11301D02197F1F788E20E94890088E00E94890053
S11301E00E949D0086E00E948900812F0E94890060
S11301F0DF91CF911F91089580E487B987E886B98C
S1130200089597B1987F8770892B87B9369A369964
S1130210FECF84B195B108958BE683BFBB9A089550
S11302202FEF829FC001112464E670E00E94F00267
S11302306CBF0895CF93DF93CDB7DEB72A970FB67F
S1130240F894DEBF0FBECDBF8FEF87BB0E94FC00CA
S11302508EE00E94C6000E940C010E949D0060E096
S113026080E00E9493008FE19EE40197F1F700C0C3
S1130270000014E680E00E940101BC0180E090E0EF
S11302800E94620227ED33EA40E050E40E94BA0182
S11302900E942C026B017C010E949D0060E080E0C2
S11302A00E9493004AE050E0BE016F5F7F4FC60199
S11302B00E94180380E690E00E94B600CE010196E9
S11302C00E94B60060E087E00E94930086E690E01A
S11302D00E94B600C6014497059750F461E080E09F
S11302E00E94930088E690E00E94B60082E336C044
S11302F0C6014997059750F461E080E00E9493009D
S113030083E790E00E94B60086E428C0C6014E97B9
S1130310059750F461E080E00E9493008EE790E03E
S11303200E94B6008AE51AC093E2C91AD10826E0F1
S1130330C216D10450F461E080E00E94930089E881
S113034090E00E94B600812F09C061E080E00E9425
S1130350930085E990E00E94B60080E00E941001BD
S11303608FEF91EE24E0815090402040E1F700C0EF
S1130370000080CF0E94CE010C94B6020E94AF020E
S113038058F00E94A80240F029F45F3F29F00C9431
S11303909F0251110C94EA020C94A5020E94C70218
S11303A068F39923B1F3552391F3951B550BBB27A0
S11303B0AA2762177307840738F09F5F5F4F220FE5
S11303C0331F441FAA1FA9F335D00E2E3AF0E0E8DC
S11303D032D091505040E695001CCAF72BD0FE2F26
S11303E029D0660F771F881FBB1F261737074807BA
S11303F0AB07B0E809F0BB0B802DBF01FF27935872
S11304005F4F3AF09E3F510578F00C949F020C9494
S1130410EA025F3FE4F3983ED4F3869577956795B7
S1130420B795F7959F5FC9F7880F911D96958795A6
S113043097F90895E1E0660F771F881FBB1F6217C5
S113044073078407BA0720F0621B730B840BBA0B83
S1130450EE1F88F7E09508950E9433026894B11165
S11304600C94EA0208950E94CF0288F09F5798F0F6
S1130470B92F9927B751B0F0E1F0660F771F881FA5
S1130480991F1AF0BA95C9F714C0B13091F00E94BF
S1130490E902B1E008950C94E902672F782F8827C8
S11304A0B85F39F0B93FCCF3869577956795B395E6
S11304B0D9F73EF490958095709561957F4F8F4F55
S11304C09F4F0895E89409C097FB3EF4909580955A
S11304D0709561957F4F8F4F9F4F9923A9F0F92F06
S11304E096E9BB279395F695879577956795B79584
S11304F0F111F8CFFAF4BB0F11F460FF1BC06F5F6A
S11305007F4F8F4F9F4F16C0882311F096E911C07B
S1130510772321F09EE8872F762F05C0662371F09C
S113052096E8862F70E060E02AF09A95660F771FB0
S1130530881FDAF7880F9695879597F9089597F9A4
S11305409F6780E870E060E008959FEF80EC089575
S113055000240A941616170618060906089500249E
S11305600A9412161306140605060895092E039418
S1130570000C11F4882352F0BB0F40F4BF2B11F48C
S113058060FF04C06F5F7F4F8F4F9F4F089557FDEB
S11305909058440F551F59F05F3F71F04795880FED
S11305A097FB991F61F09F3F79F087950895121684
S11305B013061406551FF2CF4695F1DF08C0161630
S11305C017061806991FF1CF8695710561050894E1
S11305D00895E894BB2766277727CB0197F90895F8
S11305E097FB072E16F4009407D077FD09D00E94DC
S11305F0040307FC05D03EF4909581959F4F089520
S1130600709561957F4F0895AA1BBB1B51E107C0EC
S1130610AA1FBB1FA617B70710F0A61BB70B881F8E
S1130620991F5A95A9F780959095BC01CD0108951D
S11306304532510520F4423010F00C942303FB01A1
S11306401082CB010895BB274A3031F4992322F458
S1130650BDE2909581959F4F0C942F03BB27FB011E
S11306605527AA27880F991FAA1FA41710F0A41BA7
S113067083955051B9F7A05DAA3308F0A95DA19301
S1130680009779F7B111B1931192CB010C944803FF
S1130690DC01FC01672F71917723E1F7329704C0E5
S11306A07C916D9370836291AE17BF07C8F3089570
S10706B0F894FFCFE8
S11306B454656D703D00430046616E204F4E2035F5
S11306C430250046616E204F4E20373025004661A8
S11306D46E204F4E203930250046616E204F4E2047
S11306E4313030250046616E204F464620302500C7
S9030000FC
