:100000000C942A000C943F000C943F000C943F0089
:100010000C943F000C943F000C943F000C943F0064
:100020000C943F000C943F000C943F000C943F0054
:100030000C943F000C943F000C943F000C943F0044
:100040000C943F000C943F000C943F000C943F0034
:100050000C943F0011241FBECFE5D8E0DEBFCDBF1A
:1000600010E0A0E6B0E0ECEEF4E002C005900D92E6
:10007000AE38B107D9F70E944B020C9474020C946D
:100080000000843008F07EC0683008F07BC0423049
:1000900008F078C0813019F130F08230E1F183301E
:1000A00009F455C00895442319F0413069F00895CA
:1000B0002AB381E090E002C0880F991F6A95E2F7A9
:1000C000809582238ABB08952AB381E090E002C024
:1000D000880F991F6A95E2F7822B8ABB0895442303
:1000E00019F0413069F0089527B381E090E002C033
:1000F000880F991F6A95E2F78095822387BB089540
:1001000027B381E090E002C0880F991F6A95E2F75B
:10011000822B87BB0895442319F0413069F008957C
:1001200024B381E090E002C0880F991F6A95E2F73E
:100130008095822384BB089524B381E090E002C0BF
:10014000880F991F6A95E2F7822B84BB0895442398
:1001500019F0413069F0089521B381E090E002C0C8
:10016000880F991F6A95E2F78095822381BB0895D5
:1001700021B381E090E002C0880F991F6A95E2F7F1
:10018000822B81BB0895843008F07EC0683008F06F
:100190007BC0423008F078C0813019F130F08230F5
:1001A000E1F1833009F455C00895442319F041303A
:1001B00069F008952BB381E090E002C0880F991F89
:1001C0006A95E2F7809582238BBB08952BB381E07B
:1001D00090E002C0880F991F6A95E2F7822B8BBBD3
:1001E0000895442319F0413069F0089528B381E05F
:1001F00090E002C0880F991F6A95E2F780958223EC
:1002000088BB089528B381E090E002C0880F991F51
:100210006A95E2F7822B88BB0895442319F0413098
:1002200069F0089525B381E090E002C0880F991F1E
:100230006A95E2F78095822385BB089525B381E016
:1002400090E002C0880F991F6A95E2F7822B85BB68
:100250000895442319F0413069F0089522B381E0F4
:1002600090E002C0880F991F6A95E2F7809582237B
:1002700082BB089522B381E090E002C0880F991FED
:100280006A95E2F7822B82BB0895CF93C82F80FD39
:1002900006C040E064E081E00E94C30005C041E088
:1002A00064E081E00E94C300C1FD06C040E065E05B
:1002B00081E00E94C30005C041E065E081E00E944A
:1002C000C300C2FD06C040E066E081E00E94C300BA
:1002D00005C041E066E081E00E94C300C3FD06C0A6
:1002E00040E067E081E00E94C30005C041E067E0B4
:1002F00081E00E94C300CF91089541E063E081E076
:100300000E94C3008FE99FE00197F1F700C0000051
:1003100040E063E081E00E94C3000895CF93C82FBE
:1003200041E061E081E00E94C30040E062E081E0E2
:100330000E94C3008C2F82958F700E9445010E94FD
:100340007D018C2F0E9445010E947D01CF9108956F
:10035000CF93C82F40E061E081E00E94C30040E0FD
:1003600062E081E00E94C3008C2F82958F700E9412
:1003700045010E947D018C2F0E9445010E947D0154
:10038000CF91089541E061E081E00E94410041E0A9
:1003900062E081E00E94410041E063E081E00E9470
:1003A000410041E064E081E00E94410041E065E0FD
:1003B00081E00E94410041E066E081E00E9441004E
:1003C00041E067E081E00E9441002FE785EB91E08A
:1003D000215080409040E1F700C0000040E061E023
:1003E00081E00E94C30040E062E081E00E94C3001F
:1003F00082E00E9445010E947D0188E20E94A801DE
:1004000020EF2A95F1F78FE00E94A80180EF8A95EE
:10041000F1F781E00E94A8018FE39FE10197F1F7D6
:1004200000C0000086E00E94A80108950F931F936A
:10043000CF93009729F40CC00E948E01CF5F02C0B9
:100440008C01C0E0F801EC0FF11D80818111F4CF27
:10045000CF911F910F91089581E00E94A8018FE331
:100460009FE10197F1F700C000000895882319F07B
:10047000813049F0089580E8860F0E94A80180EF3E
:100480008A95F1F7089580EC860F0E94A80180EF0D
:100490008A95F1F708950E94C2010E942C0280E61D
:1004A00090E00E9416022FEF83E294EF21508040EB
:1004B0009040E1F700C000000E942C028CE690E022
:1004C0000E94160260E081E00E9436028DE790E013
:1004D0000E9416022FEF83E294EF2150804090405B
:0C04E000E1F700C00000D9CFF894FFCF76
:1004EC0048656C6C6F20576F726C64005472757336
:1004FC0074206D652049276D20616E3A00272045D8
:0E050C006E67696E656572202121212027002F
:00000001FF
