S00E0000446179315F412E7372656327
S11300000C942A000C9434000C9434000C943400A6
S11300100C9434000C9434000C9434000C9434008C
S11300200C9434000C9434000C9434000C9434007C
S11300300C9434000C9434000C9434000C9434006C
S11300400C9434000C9434000C9434000C9434005C
S11300500C94340011241FBECFE5D8E0DEBFCDBF21
S11300600E9406020C94A9020C940000843008F04B
S11300707EC0683008F07BC0423008F078C0813020
S113008019F130F08230E1F1833009F455C008955C
S1130090442319F0413069F008952AB381E090E0D7
S11300A002C0880F991F6A95E2F7809582238ABB64
S11300B008952AB381E090E002C0880F991F6A95E1
S11300C0E2F7822B8ABB0895442319F0413069F08A
S11300D0089527B381E090E002C0880F991F6A95C4
S11300E0E2F78095822387BB089527B381E090E0EF
S11300F002C0880F991F6A95E2F7822B87BB089587
S1130100442319F0413069F0089524B381E090E06C
S113011002C0880F991F6A95E2F78095822384BBF9
S1130120089524B381E090E002C0880F991F6A9576
S1130130E2F7822B84BB0895442319F0413069F01F
S1130140089521B381E090E002C0880F991F6A9559
S1130150E2F78095822381BB089521B381E090E08A
S113016002C0880F991F6A95E2F7822B81BB08951C
S1130170843008F07EC0683008F07BC0423008F05C
S113018078C0813019F130F08230E1F1833009F424
S113019055C00895442319F0413069F008952BB3F4
S11301A081E090E002C0880F991F6A95E2F780957C
S11301B082238BBB08952BB381E090E002C0880FAB
S11301C0991F6A95E2F7822B8BBB0895442319F09B
S11301D0413069F0089528B381E090E002C0880FAF
S11301E0991F6A95E2F78095822388BB089528B306
S11301F081E090E002C0880F991F6A95E2F7822B94
S113020088BB0895442319F0413069F0089525B35B
S113021081E090E002C0880F991F6A95E2F780950B
S1130220822385BB089525B381E090E002C0880F46
S1130230991F6A95E2F7822B85BB0895442319F030
S1130240413069F0089522B381E090E002C0880F44
S1130250991F6A95E2F78095822382BB089522B3A1
S113026081E090E002C0880F991F6A95E2F7822B23
S113027082BB08958430C0F56830B0F5411551054E
S113028099F1813089F028F08230C9F0833011F17E
S1130290089589B390E002C0959587956A95E2F731
S11302A08170FA018083089586B390E002C0959529
S11302B087956A95E2F78170FA018083089583B384
S11302C090E002C0959587956A95E2F78170FA01EE
S11302D08083089580B390E002C0959587956A95D0
S11302E0E2F78170FA01808308958430A8F56830BC
S11302F098F5813089F028F08230C9F0833011F10B
S113030008952BB381E090E002C0880F991F6A958D
S1130310E2F782278BBB089528B381E090E002C006
S1130320880F991F6A95E2F7822788BB089525B341
S113033081E090E002C0880F991F6A95E2F7822756
S113034085BB089522B381E090E002C0880F991F15
S11303506A95E2F7822782BB08958430A8F5683055
S113036098F5813089F028F08230C9F0833011F19A
S113037008952BB381E090E002C0880F991F6A951D
S1130380E2F7822B8BBB089528B381E090E002C092
S1130390880F991F6A95E2F7822B88BB089525B3CD
S11303A081E090E002C0880F991F6A95E2F7822BE2
S11303B085BB089522B381E090E002C0880F991FA5
S11303C06A95E2F7822B82BB089541E00E943600D1
S11303D00895413019F0423029F0089541E00E9417
S11303E0B800089540E00E94B8000895413019F023
S11303F0423029F0089540E00E94B800089541E099
S11304000E94B80008950E9475010895CF93DF9368
S113041000D01F92CDB7DEB762E082E00E94E50112
S113042067E082E00E94E50163E083E00E94E50169
S113043060E081E00E946D0266E083E00E946D024C
S113044066E083E00E94AD0162E083E00E946D02F9
S11304509E012F5F3F4F41E060E081E00E94710206
S11304609E012E5F3F4F42E066E083E00E947102EE
S11304709E012D5F3F4F42E062E083E00E947102E3
S11304808981813031F441E062E082E00E94E90137
S113049005C041E062E082E00E94F6018A81813079
S11304A069F467E082E00E9403022FEF83ED90E39A
S11304B0215080409040E1F700C000008B818130E2
S11304C031F442E063E083E00E94E901C1CF42E0FD
S11304D063E083E00E94F601BBCF40E00E94360057
S11304E008950F931F93CF93DF931F92CDB7DEB779
S11304F02115310541F18901413019F0423091F063
S113050022C0AE014F5F5F4F0E943A018981882368
S113051029F08130C1F4F801808315C082E0F8012C
S1130520808311C0AE014F5F5F4F0E943A01898101
S1130530882331F0813039F482E0F801808303C0EC
S113054081E0F80180830F90DF91CF911F910F918B
S10905500895F894FFCFAA
S9030000FC
