S018000052544F53203173742070726F6A6563742E7372656375
S11300000C942A000C9447000C9447000C9447006D
S11300100C94CB020C9447000C9447000C944700BA
S11300200C9447000C9447000C9447000C94470030
S11300300C9447000C9447000C9447000C94470020
S11300400C9447000C9447000C9447000C94470010
S11300500C94470011241FBECFE5D8E0DEBFCDBF0E
S113006010E0A0E6B0E0EEEDF6E002C005900D92DF
S1130070AA36B107D9F720E0AAE6B0E001C01D9284
S1130080A238B207E1F70E9422020C946D030C948B
S11300900000843008F07EC0683008F07BC0423035
S11300A008F078C0813019F130F08230E1F183300A
S11300B009F455C00895442319F0413069F00895B6
S11300C02AB381E090E002C0880F991F6A95E2F795
S11300D0809582238ABB08952AB381E090E002C010
S11300E0880F991F6A95E2F7822B8ABB08954423EF
S11300F019F0413069F0089527B381E090E002C01F
S1130100880F991F6A95E2F78095822387BB08952B
S113011027B381E090E002C0880F991F6A95E2F747
S1130120822B87BB0895442319F0413069F0089568
S113013024B381E090E002C0880F991F6A95E2F72A
S11301408095822384BB089524B381E090E002C0AB
S1130150880F991F6A95E2F7822B84BB0895442384
S113016019F0413069F0089521B381E090E002C0B4
S1130170880F991F6A95E2F78095822381BB0895C1
S113018021B381E090E002C0880F991F6A95E2F7DD
S1130190822B81BB0895843008F07EC0683008F05B
S11301A07BC0423008F078C0813019F130F08230E1
S11301B0E1F1833009F455C00895442319F0413026
S11301C069F008952BB381E090E002C0880F991F75
S11301D06A95E2F7809582238BBB08952BB381E067
S11301E090E002C0880F991F6A95E2F7822B8BBBBF
S11301F00895442319F0413069F0089528B381E04B
S113020090E002C0880F991F6A95E2F780958223D7
S113021088BB089528B381E090E002C0880F991F3D
S11302206A95E2F7822B88BB0895442319F0413084
S113023069F0089525B381E090E002C0880F991F0A
S11302406A95E2F78095822385BB089525B381E002
S113025090E002C0880F991F6A95E2F7822B85BB54
S11302600895442319F0413069F0089522B381E0E0
S113027090E002C0880F991F6A95E2F78095822367
S113028082BB089522B381E090E002C0880F991FD9
S11302906A95E2F7822B82BB0895843098F59FEF2C
S11302A0960F9E3F78F1813081F028F08230B9F0CA
S11302B08330F9F00895662319F06F3F19F008951B
S11302C01ABA08958FEF8ABB0895662319F06F3F19
S11302D019F0089517BA08958FEF87BB0895662320
S11302E019F06F3F19F0089514BA08958FEF84BB85
S11302F00895662319F06F3F19F0089511BA08950F
S11303008FEF81BB0895843078F4813041F028F078
S1130310823039F0833039F008956BBB089568BB9F
S1130320089565BB089562BB08958FB780688FBF39
S1130330089541E00E9449000895413019F0423087
S113034029F0089541E00E94CB00089540E00E9406
S1130350CB000895413019F0423029F0089540E06F
S11303600E94CB00089541E00E94CB000895CF93F2
S1130370DF9341E064E083E00E94AA0141E067E08A
S113038083E00E94AA0141E060E083E00E949D01B5
S1130390C1E0D0E00DC08C2F0E9403032FE382E460
S11303A09FE0215080409040E1F700C0000021967A
S11303B0CD33D10584F341E060E083E00E94AA01DB
S11303C041E067E083E00E94AA0141E064E083E049
S11303D00E949D01C1E0D0E00DC08C2F0E94030358
S11303E02FE382E49FE0215080409040E1F700C079
S11303F000002196C630D10584F341E060E083E03B
S11304000E94AA0141E064E083E00E94AA0141E065
S113041067E083E00E949D01C1E0D0E00DC08C2F15
S11304200E9403032FE382E49FE021508040904028
S1130430E1F700C000002196CD33D10584F3DF91AC
S1130440CF9108950E94F40260E083E00E94990134
S113045064E083E00E94990167E083E00E949901CF
S113046047EB51E061E070E080E00E948A020E9464
S11304707C02F6CFCF9380916A0090916B00019635
S113048090936B0080936A00C0E032C02C2F30E060
S1130490F901EE0FFF1FEE0FFF1FE20FF31FE459E8
S11304A0FF4F8481823019F5F901EE0FFF1FEE0F23
S11304B0FF1FE20FF31FE459FF4F628173818091A4
S11304C06A0090916B000E945903892B81F4F90111
S11304D0EE0FFF1FEE0FFF1F2E0F3F1FF901E45910
S11304E0FF4F0190F081E02D309709F00995CF5F1F
S11304F0C43060F2CF9108950E9495010E94AE022B
S113050089EF0E94C2028AE392E00E94C4020E9420
S1130510B8020895843008F541155105F1F090E0D2
S1130520FC01EE0FFF1FEE0FFF1FE80FF91FE45948
S1130530FF4F20813181232B81F4FC01EE0FFF1F3B
S1130540EE0FFF1F8E0F9F1FFC01E459FF4F5183D5
S113055040837383628382E08483089585B58F7BAF
S113056085BD85B5886085BD89B7806889BF0895D4
S113057085B58E7F85BD85B58D7F85BD85B5846048
S113058085BD089583BD0895009721F0909381005F
S11305908093800008951F920F920FB60F9211243A
S11305A02F933F934F935F936F937F938F939F9377
S11305B0AF93BF93EF93FF93E0918000F09181009C
S11305C0309709F00995FF91EF91BF91AF919F91F9
S11305D08F917F916F915F914F913F912F910F90E8
S11305E00FBE0F901F9018956FEF81E00E944D0190
S11305F041E061E080E00E94490041E062E080E087
S11306000E9449000895CF93DF93843608F04EC0CA
S11306109DEC899F912D1124C92FC695C695C69529
S1130620EC2FEE0FCE2FCC0FCC0FEC0FC82FCE1B20
S1130630D92FD695D695D69541E061E080E00E9409
S1130640CB0041E062E080E00E94CB00ED2FF0E0BF
S1130650E05AFF4F608181E00E94830140E061E045
S113066080E00E94CB008FE39CE90197F1F700C082
S1130670000041E061E080E00E94CB00EC2FF0E05C
S1130680E05AFF4F608181E00E94830140E062E014
S113069080E00E94CB008FE39CE90197F1F700C052
S11306A0000041E062E080E00E94CB00DF91CF9146
S11306B00895AA1BBB1B51E107C0AA1FBB1FA617A5
S11306C0B70710F0A61BB70B881F991F5A95A9F7F7
S11106D080959095BC01CD010895F894FFCF5C
S10D06DE3F065B4F666D7D077F6FDA
S9030000FC
