:100000000C942A000C943F000C943F000C943F0089
:100010000C943F000C943F000C943F000C943F0064
:100020000C943F000C943F000C943F000C943F0054
:100030000C943F000C943F000C943F000C943F0044
:100040000C943F000C943F000C943F000C943F0034
:100050000C943F0011241FBECFE5D8E0DEBFCDBF1A
:1000600010E0A0E6B0E0E0ECFEE002C005900D92EA
:10007000A436B107D9F70E94ED030C945E070C94E7
:100080000000813059F018F0823079F014C087B147
:10009000806487B987B18F7787B90DC087B18F7BAF
:1000A00087B987B18F7787B906C087B1806487B970
:1000B00087B1806887B986B18F7D86B986B18F7D1B
:1000C00086B986B1877F86B986B1816086B986B1E7
:1000D000826086B986B1846086B986B1806886B947
:1000E000089561157105A9F0803298F497B1907E5A
:1000F00097B997B1892B87B986B1806486B9349B4B
:10010000FECF86B1806186B984B195B1FB01918340
:1001100080830895813019F0823089F0089541E09C
:1001200063E082E00E944A0141E064E082E00E94D4
:100130004A0141E063E081E00E944A01089541E004
:1001400065E082E00E944A0141E066E082E00E94B0
:100150004A0141E065E083E00E944A010895813050
:1001600019F0823009F10895613019F0623061F0C0
:1001700015C041E063E082E00E94CC0140E064E011
:1001800082E00E94CC010AC040E063E082E00E946D
:10019000CC0141E064E082E00E94CC0141E063E0F8
:1001A00081E00E94CC010895613019F0623061F065
:1001B00015C041E065E082E00E94CC0140E066E0CD
:1001C00082E00E94CC010AC040E065E082E00E942B
:1001D000CC0141E066E082E00E94CC0141E065E0B4
:1001E00083E00E94CC010895CF93C42F813019F091
:1001F000823041F14DC0613019F0623061F015C0BC
:1002000041E063E082E00E94CC0140E064E082E0F3
:100210000E94CC010AC040E063E082E00E94CC0171
:1002200041E064E082E00E94CC010E9454046C2F03
:1002300070E080E090E00E940E0648EE53E00E94DD
:10024000B10426C0613019F0623061F015C041E0A0
:1002500065E082E00E94CC0140E066E082E00E941E
:10026000CC010AC040E065E082E00E94CC0141E0A0
:1002700066E082E00E94CC010E9441046C2F70E095
:1002800080E090E00E940E0648EE53E00E94670472
:10029000CF910895843008F07EC0683008F07BC0AC
:1002A000423008F078C0813019F130F08230E1F14D
:1002B000833009F455C00895442319F0413069F0A2
:1002C00008952AB381E090E002C0880F991F6A95D3
:1002D000E2F7809582238ABB08952AB381E090E0FB
:1002E00002C0880F991F6A95E2F7822B8ABB089596
:1002F000442319F0413069F0089527B381E090E07C
:1003000002C0880F991F6A95E2F78095822387BB08
:10031000089527B381E090E002C0880F991F6A9585
:10032000E2F7822B87BB0895442319F0413069F02E
:10033000089524B381E090E002C0880F991F6A9568
:10034000E2F78095822384BB089524B381E090E096
:1003500002C0880F991F6A95E2F7822B84BB08952B
:10036000442319F0413069F0089521B381E090E011
:1003700002C0880F991F6A95E2F78095822381BB9E
:10038000089521B381E090E002C0880F991F6A951B
:10039000E2F7822B81BB0895843008F07EC068307C
:1003A00008F07BC0423008F078C0813019F130F09D
:1003B0008230E1F1833009F455C00895442319F0E7
:1003C000413069F008952BB381E090E002C0880FBE
:1003D000991F6A95E2F7809582238BBB08952BB312
:1003E00081E090E002C0880F991F6A95E2F7822BA6
:1003F0008BBB0895442319F0413069F0089528B368
:1004000081E090E002C0880F991F6A95E2F780951D
:10041000822388BB089528B381E090E002C0880F52
:10042000991F6A95E2F7822B88BB0895442319F03F
:10043000413069F0089525B381E090E002C0880F53
:10044000991F6A95E2F78095822385BB089525B3AD
:1004500081E090E002C0880F991F6A95E2F7822B35
:1004600085BB0895442319F0413069F0089522B303
:1004700081E090E002C0880F991F6A95E2F78095AD
:10048000822382BB089522B381E090E002C0880FEE
:10049000991F6A95E2F7822B82BB0895CF93C82FEC
:1004A00080FD06C040E064E080E00E94CC0105C011
:1004B00041E064E080E00E94CC01C1FD06C040E064
:1004C00065E080E00E94CC0105C041E065E080E08D
:1004D0000E94CC01C2FD06C040E066E080E00E94C0
:1004E000CC0105C041E066E080E00E94CC01C3FD84
:1004F00006C040E067E080E00E94CC0105C041E01A
:1005000067E080E00E94CC01CF91089541E063E074
:1005100080E00E94CC018FE99FE00197F1F700C0D5
:10052000000040E063E080E00E94CC010895CF939A
:10053000C82F41E061E080E00E94CC0140E062E031
:1005400080E00E94CC018C2F82958F700E944E0219
:100550000E9486028C2F0E944E020E948602CF913A
:100560000895CF93C82F40E061E080E00E94CC0165
:1005700040E062E080E00E94CC018C2F82958F7079
:100580000E944E020E9486028C2F0E944E020E9400
:100590008602CF91089541E061E080E00E944A0127
:1005A00041E062E080E00E944A0141E063E080E0D7
:1005B0000E944A0141E064E080E00E944A0141E07B
:1005C00065E080E00E944A0141E066E080E00E9430
:1005D0004A0141E067E080E00E944A012FE785EB95
:1005E00091E0215080409040E1F700C0000040E0E1
:1005F00061E080E00E94CC0140E062E080E00E9487
:10060000CC0182E00E944E020E94860288E20E9493
:10061000B10220EF2A95F1F78FE00E94B10280EF3E
:100620008A95F1F781E00E94B1028FE39FE1019783
:10063000F1F700C0000086E00E94B10208950F9318
:100640001F93CF93009729F40CC00E949702CF5FAD
:1006500002C08C01C0E0F801EC0FF11D8081811116
:10066000F4CFCF911F910F91089581E00E94B102C4
:100670008FE39FE10197F1F700C000000895CF924A
:10068000DF92EF92FF920F931F938B019C01672BD8
:10069000682B692B49F580E30E94970245C0DC0175
:1006A000CB01880F991FAA1FBB1F6C017D01CC0CC9
:1006B000DD1CEE1CFF1CCC0CDD1CEE1CFF1CC80E50
:1006C000D91EEA1EFB1EC901B8012AE030E040E055
:1006D00050E00E942D076C0D7D1D8E1D9F1D022F69
:1006E000132F242F352F04C061E070E080E090E0EC
:1006F000011511052105310591F62AE030E040E0B1
:1007000050E00E942D07E22EF32E042F152F80E3D8
:10071000860F0E9497026E2D7F2D802F912F6130C2
:1007200071058105910549F71F910F91FF90EF9099
:10073000DF90CF900895882319F0813049F0089513
:1007400080E8860F0E94B10280EF8A95F1F7089544
:1007500080EC860F0E94B10280EF8A95F1F7089530
:1007600040E060E080E00E944A0180E00E94410099
:1007700008950F931F93CF93DF9300D0CDB7DEB7CB
:10078000009721F18C01BE016F5F7F4F80E00E94D6
:10079000710029813A81A8E8B3E10E944F079B01CB
:1007A000AC01012E1AE056954795379527951A9575
:1007B000D1F7102DADECBCEC0E944F0796958795B4
:1007C0009695879596958795F80180830F900F9061
:1007D000DF91CF911F910F910895CF93DF931F92D7
:1007E000CDB7DEB70E94CB020E94B00381E00E9429
:1007F0008A000E943404CE0101960E94B9038981C7
:10080000843140F0893140F08E3140F0893240F43B
:1008100014E607C012E305C01BE403C01AE501C0DB
:1008200010E061E081E00E94AF00412F61E081E0D3
:100830000E94F4000E94350360E080E00E949B0368
:10084000698170E080E090E00E943F0380E690E0E4
:100850000E941F032FEF83ED90E3215080409040D2
:10086000E1F700C00000C7CF83B7806483BF83B7C0
:10087000886083BF83B78F7E83BF83B7806283BF67
:1008800008958FB58E7F8FBD8FB582608FBD8EB579
:1008900088608EBD8EB580618EBD8FB58F7B8FBD1C
:1008A0008FB580688FBD08958FB581608FBD8FB57E
:1008B00082608FBD8EB588608EBD8EB580618EBD25
:1008C0008FB58F7E8FBD8FB580628FBD0895CF921B
:1008D000DF92EF92FF92CF93DF936B017C01EA01ED
:1008E00020E030E048EC52E40E946805181694F1CC
:1008F0009E0140E050E060E970ED83E090E00E94EE
:100900002D072150310937BD26BD66B577B56F5F1C
:100910007F4F80E090E00E940E06A70196010E94A2
:10092000C00620E030E048EC52E40E946D0520E073
:1009300030E040E85FE30E94FB040E94DF057BBDDE
:100940006ABD8EB581608EBD8EB582608EBD8EB55E
:100950008B7F8EBDDF91CF91FF90EF90DF90CF9096
:100960000895CF92DF92EF92FF92CF93DF936B01C6
:100970007C01EA0120E030E048EC52E40E94680586
:10098000181694F19E0140E050E060E970ED83E0BC
:1009900090E00E942D07215031093BBD2ABD6AB568
:1009A0007BB56F5F7F4F80E090E00E940E06A7014D
:1009B00096010E94C00620E030E048EC52E40E941C
:1009C0006D0520E030E040E85FE30E94FB040E94F8
:1009D000DF0579BD68BD8EB581608EBD8EB5826044
:1009E0008EBD8EB58B7F8EBDDF91CF91FF90EF9046
:1009F000DF90CF9008955058BB27AA270E94130577
:100A00000C9486060E94780638F00E947F0620F03B
:100A100039F49F3F19F426F40C9475060EF4E09512
:100A2000E7FB0C946F06E92F0E94970658F3BA175C
:100A3000620773078407950720F079F4A6F50C94F4
:100A4000B9060EF4E0950B2EBA2FA02D0B01B901BB
:100A500090010C01CA01A0011124FF27591B99F034
:100A6000593F50F4503E68F11A16F040A22F232F40
:100A7000342F4427585FF3CF469537952795A79590
:100A8000F0405395C9F77EF41F16BA0B620B730B37
:100A9000840BBAF09150A1F0FF0FBB1F661F771FA8
:100AA000881FC2F70EC0BA0F621F731F841F48F45D
:100AB000879577956795B795F7959E3F08F0B0CFE6
:100AC0009395880F08F09927EE0F979587950895CD
:100AD0000E944B0608F481E008950E9481050C9461
:100AE00086060E947F0658F00E94780640F029F49E
:100AF0005F3F29F00C946F0651110C94BA060C94C8
:100B000075060E94970668F39923B1F3552391F374
:100B1000951B550BBB27AA2762177307840738F06C
:100B20009F5F5F4F220F331F441FAA1FA9F335D0C9
:100B30000E2E3AF0E0E832D091505040E695001C7D
:100B4000CAF72BD0FE2F29D0660F771F881FBB1F37
:100B5000261737074807AB07B0E809F0BB0B802D15
:100B6000BF01FF2793585F4F3AF09E3F510578F041
:100B70000C946F060C94BA065F3FE4F3983ED4F3EE
:100B8000869577956795B795F7959F5FC9F7880F15
:100B9000911D9695879597F90895E1E0660F771F67
:100BA000881FBB1F621773078407BA0720F0621BF8
:100BB000730B840BBA0BEE1F88F7E09508950E9423
:100BC0009F0688F09F5798F0B92F9927B751B0F03A
:100BD000E1F0660F771F881F991F1AF0BA95C9F7C1
:100BE00014C0B13091F00E94B906B1E008950C94A0
:100BF000B906672F782F8827B85F39F0B93FCCF353
:100C0000869577956795B395D9F73EF4909580953D
:100C1000709561957F4F8F4F9F4F0895E89409C05D
:100C200097FB3EF490958095709561957F4F8F4F1F
:100C30009F4F9923A9F0F92F96E9BB279395F69535
:100C4000879577956795B795F111F8CFFAF4BB0FB3
:100C500011F460FF1BC06F5F7F4F8F4F9F4F16C017
:100C6000882311F096E911C0772321F09EE8872FA1
:100C7000762F05C0662371F096E8862F70E060E05D
:100C80002AF09A95660F771F881FDAF7880F9695D6
:100C9000879597F90895990F0008550FAA0BE0E87A
:100CA000FEEF16161706E807F907C0F0121613062E
:100CB000E407F50798F0621B730B840B950B39F46E
:100CC0000A2661F0232B242B252B21F408950A26D4
:100CD00009F4A140A6958FEF811D811D089597F914
:100CE0009F6780E870E060E008959FEF80EC0895D2
:100CF00000240A94161617061806090608950024FB
:100D00000A9412161306140605060895092E039474
:100D1000000C11F4882352F0BB0F40F4BF2B11F4E8
:100D200060FF04C06F5F7F4F8F4F9F4F089557FD47
:100D30009058440F551F59F05F3F71F04795880F49
:100D400097FB991F61F09F3F79F0879508951216E0
:100D500013061406551FF2CF4695F1DF08C016168C
:100D600017061806991FF1CF86957105610508943D
:100D70000895E894BB2766277727CB0197F9089554
:100D80000E94D3060C9486060E94780638F00E94D2
:100D90007F0620F0952311F00C946F060C947506D5
:100DA00011240C94BA060E94970670F3959FC1F324
:100DB000950F50E0551F629FF001729FBB27F00D09
:100DC000B11D639FAA27F00DB11DAA1F649F66275E
:100DD000B00DA11D661F829F2227B00DA11D621FAD
:100DE000739FB00DA11D621F839FA00D611D221F67
:100DF000749F3327A00D611D231F849F600D211D4B
:100E0000822F762F6A2F11249F5750409AF0F1F0CD
:100E100088234AF0EE0FFF1FBB1F661F771F881F36
:100E200091505040A9F79E3F510580F00C946F06F9
:100E30000C94BA065F3FE4F3983ED4F38695779519
:100E40006795B795F795E7959F5FC1F7FE2B880FDC
:100E5000911D9695879597F90895A1E21A2EAA1BE0
:100E6000BB1BFD010DC0AA1FBB1FEE1FFF1FA2175A
:100E7000B307E407F50720F0A21BB30BE40BF50B57
:100E8000661F771F881F991F1A9469F760957095E0
:100E9000809590959B01AC01BD01CF010895A29F63
:100EA000B001B39FC001A39F700D811D1124911D3E
:100EB000B29F700D811D1124911D0895F894FFCFEC
:040EC00020430000CB
:00000001FF
